:10000000F8FF002011040000693100006931000090
:100010006931000069310000693100006931000078
:100020006931000069310000693100006931000068
:100030006931000069310000693100006931000058
:100040006931000069310000693100006931000048
:10040000FFFFFFFFFFFFFFFFFFFFFFFFFEFFFFFFFD
:1004100062B605F067FBFEE7012110F01F02914074
:10042000DFF8AC2B40B2430942F82310704701219A
:1004300010F01F029140DFF89C2B40B2430942F8B4
:100440002310704780B5DFF8340B006800F0F6FE2B
:1004500000F097FFDFF8D81C0860DFF8D40C0068C4
:10046000B0F5C86F04D34FF4C860DFF8C41C08604F
:10047000DFF8BC0C00683C2101FB00F202210020E7
:1004800001F0ECF801BD80B500220221002001F04E
:10049000E5F800220121002001F0E0F801BD10B4D0
:1004A000030000242100994207DA00242200082AD0
:1004B00001DA521CFBE7491CF5E710BC704780B518
:1004C000DFF8C40A0168002001F008FADFF87C1C9C
:1004D000542001F0B2FA4420FFF7A9FF01BD80B516
:1004E000DFF8FC0A0068002101F0BEFA0BD0DFF84B
:1004F000F40A0168DFF8F00A006801F0C3FADFF8D7
:10050000E41A08600AE0DFF8E40A0168DFF8D80AB4
:10051000006801F0B7FADFF8D41A0860DFF8CC0AF7
:100520000068DFF8C01A096801F0EEFADFF8C01AB7
:100530000860DFF8BC0A0068002101F069FB06D200
:10054000DFF8B00A0068DFF8B01A086005E0DFF8ED
:10055000AC0A0068DFF8A01A0860DFF8940A0068A7
:10056000DFF89C1A0860DFF89C0A0168DFF8900A3F
:10057000006801F05FFBDFF8901A0860DFF8800A7E
:100580000068DFF8881A096801F0BEFADFF8801AFF
:10059000096801F04FFBDFF87C1A0860DFF8680A91
:1005A0000168DFF8700A006801F06CFADFF8681A79
:1005B0000860DFF8640A0068DFF83C1A096801F097
:1005C000A5FBDFF82C1A0860DFF8500A0078002835
:1005D00005D0022856D020D3032866D077E0DFF874
:1005E000100A0068DFF8381A01F012FB07D8DFF8AC
:1005F000000A0068DFF82C1A01F006FC0CD3DFF8C3
:100600001C0A0078401CDFF8141A08704CF25032B3
:100610000221002001F022F859E0DFF8D409006837
:10062000DFF8FC1901F0F4FA0CD8DFF8C40900680F
:10063000DFF8F01901F0E8FB04D20020DFF8DC1944
:10064000087018E0DFF8A8090068DFF8DC1901F08D
:10065000DFFA04D80020DFF8C41908700BE0DFF8D7
:1006600090090068DFF8C41901F0CEFB03D2002026
:10067000DFF8A81908704CF250320221002000F077
:10068000EDFF24E0DFF868090068DFF8A81A01F040
:10069000BFFA04D80020DFF88419087004E0DFF8FE
:1006A000B00ADFF84C19086011E0DFF8440900686F
:1006B000DFF8741901F0ACFA04D80020DFF85C19F7
:1006C000087004E0DFF88C0ADFF824190860DFF80E
:1006D000200901685FF07E5001F0D4F900F0F9F8CC
:1006E00001F0A4FB02000021012000F0B7FFDFF8B9
:1006F0002C0902780021002001F020FDDFF8F0082D
:10070000006800F00FF800F099FD80B202000021AF
:100710001E2001F013FDDFF8D8080068DFF8381A52
:10072000086001BD80B5002101F06EFB02D290F09F
:100730000040FFE702BD80B5DFF8200AC068DFF89F
:100740001C1A0861DFF8140A0069DFF8101AC9687A
:1007500001F0DAF9FFF7E6FFDFF8041A096801F0A3
:1007600091F9DFF8FC190860DFF8F0098068DFF81C
:10077000EC19C860DFF8E409C068DFF8E01989689F
:1007800001F0C2F9FFF7CEFFDFF8D419096801F0D4
:1007900079F9DFF8CC190860DFF8C0094068DFF8A4
:1007A000BC198860DFF8B4098068DFF8B0194968BF
:1007B00001F0AAF9FFF7B6FFDFF8A419096801F004
:1007C00061F9DFF89C190860DFF890090068DFF82C
:1007D0008C194860DFF884094068DFF880190968DF
:1007E00001F092F9FFF79EFFDFF87419096801F034
:1007F00049F9DFF86C190860DFF8F4070068DFF8E2
:100800005C190860DFF858090068DFF8581901F032
:100810007DFADFF84C190860DFF84409006800F041
:100820000DFD80B20A2101FB00F20021462001F0FB
:1008300085FCDFF82809406800F000FD80B2020066
:100840000221002001F07AFC01BD80B501220021C7
:100850004F2001F025FE01220021622001F020FE40
:1008600001220121612001F01BFE012201216320F0
:1008700001F016FE01220121642001F011FE012287
:100880000121452001F00CFE00220021442001F04E
:1008900007FE002332220021012000F021FE002368
:1008A00042F210720121002000F01AFE002342F2F1
:1008B00010720221002000F013FE022000F049FF18
:1008C00001F0E0FBFFF7FBFD0121642001F03FFE9A
:1008D00001BD10B50400DFF89008210001F0D2F846
:1008E000DFF8881801F0A6F9DFF8841801F00EFA95
:1008F000DFF8801801F0C6F8DFF87C1801F09AF9EB
:10090000DFF8781801F002FA10BD80B5442001F03C
:1009100063FEDFF86C180870622001F05DFEDFF8FE
:10092000641808704F2001F057FEDFF85C1808705B
:10093000DFF84C080178DFF8540801F06FFE01BDC4
:1009400070B586B00026FFF780FF4420FFF76FFDEB
:10095000322001F090FE012001F0A4FE322001F0CF
:100960008AFE002001F09EFE4FF47A7001F083FEB3
:100970005FF4E131032002F009F9002002F02AFAC5
:10098000012002F027FA022002F024FADFF8000822
:10099000006802F073FACDE90401DFF87C04006816
:1009A00002F06CFACDE90201DFF86804006802F099
:1009B00065FACDE90001DFF85804006802F05EFA3C
:1009C00002000B0014001D00DFF84004006802F074
:1009D00055FA22002B0000F053FCDFF8B827022163
:1009E000002001F014FDDFF8B00701F017FE40F21F
:1009F000DC5001F040FE322006003000461E002888
:100A00002DD0012001F01CFF02F060FADFF88C17F6
:100A100001F07CF9DFF8D0158860DFF8CC0580683C
:100A200000F00CFC80B202000221372001F086FBAE
:100A3000DFF8B405806802F021FA02000B00DFF84D
:100A40004C0701F0EBFDDFF8A005406ADFF89815D0
:100A5000896801F017F8DFF890154862CDE7322079
:100A600006003000461E002822D0002001F0E8FEDB
:100A700002F02CFADFF8241701F048F9DFF86815C6
:100A80004860DFF86405406800F0D8FB80B20200DF
:100A900002215A2001F052FBDFF84C05406802F0B9
:100AA000EDF902000B00DFF8E40601F0B7FDD8E72E
:100AB000DFF83405406800F0C1FB80B2020002217B
:100AC000372001F03BFBDFF82005806800F0B6FB23
:100AD00080B2020002215A2001F030FBDFF8C0266C
:100AE0000421002001F093FCDFF8B80601F096FD28
:100AF00040F2DC5001F0BFFD322006003000461EFF
:100B0000002822D0012001F09BFE02F0DFF9DFF87F
:100B10008C1601F0FBF8DFF8D014C860DFF8C804C9
:100B2000C06800F08BFB80B202000421372001F086
:100B300005FBDFF8B404C06802F0A0F902000B0066
:100B4000DFF8480601F06AFDD8E7322006003000E1
:100B5000461E002822D0002001F072FE02F0B6F9F5
:100B6000DFF8381601F0D2F8DFF87C140861DFF8FE
:100B70007804006900F062FB80B2020004215A2070
:100B800001F0DCFADFF86004006902F077F9020096
:100B90000B00DFF8F80501F041FDD8E7DFF8480465
:100BA000006900F04BFB80B202000421372001F005
:100BB000C5FADFF83404C06800F040FB80B20200E0
:100BC00004215A2001F0BAFADFF81C04C068DFF8EB
:100BD0001814496801F01CF806D8DFF80C044068C6
:100BE000DFF80414486105E0DFF8FC03C068DFF8B3
:100BF000F8134861DFF8F0038068DFF8EC13096947
:100C000001F006F806D8DFF8E0038068DFF8D813B3
:100C1000886105E0DFF8D0030069DFF8CC13886154
:100C2000DFF8C4038068DFF8C013C96800F06CFF08
:100C3000DFF8741501F06AF8DFF8C0130860DFF818
:100C4000A8030069DFF8A013496800F05DFFDFF832
:100C50005C1501F05BF8DFF89C130860DFF85025A5
:100C60000621002001F0D3FB3220060040F2DC50C8
:100C700001F001FD3000461E00282ED0002001F0BA
:100C8000DFFD02F023F9DFF8141501F03FF8DFF87B
:100C90005813C861012001F0D3FD02F017F9DFF805
:100CA000FC1401F033F8DFF840130862DFF8380372
:100CB000C06900F0C3FA80B202000621372001F0BB
:100CC0003DFADFF82403006A00F0B8FA80B20200AF
:100CD00006215A2001F032FACCE7C348C069C24964
:100CE000096A00F095FF0CD85FF07E50BC4908609F
:100CF000BD48C069BC49096A00F006FFBA490860EE
:100D00000AE00020B6490860B748006AB649C969D8
:100D100000F0FAFEB4490860002001F0FBF844201E
:100D2000FFF77AFBDFF88C040068012806D1642005
:100D300001F036FC0020DFF87C140860022002F08D
:100D40007FF8002805D1002001F0E4F8FFF79BFBB5
:100D500043E6DFF864040068012805D100F016F9C5
:100D60000020DFF854140860DFF850040068012800
:100D700003D10020DFF844140860DFF84404006861
:100D8000012805D1FFF7ABFB0020DFF83414086021
:100D9000DFF830040068012805D100F02CF80020AD
:100DA000DFF820140860FFF74DFB99480068002128
:100DB00001F02AF805D272A20221432001F027FB9C
:100DC00004E070A20221432001F021FB904800685A
:100DD000FFF7A8FCDFF8F01300F02CFF00F02EFA6C
:100DE00080B202000221462001F0A8F900F016F8B6
:100DF00000F0A0F896E780B5022000F02DFDDFF8A6
:100E0000CC130860022000F03DFD01BD4404FF1F2B
:100E10003404FF1F3804FF1F3C04FF1F10B5FFF709
:100E200074FDDFF860030078002843D0DFF8A003EA
:100E300001F0F4FB6D48006800F000FA0100DFF8F3
:100E4000940301F0EBFBDFF8900301F0E7FB65484A
:100E5000006800F0F3F90100DFF8780301F0DEFB31
:100E60006348006800F0EAF90100DFF8200301F0B0
:100E7000D5FBDFF868230421002001F0C8FA5B48A5
:100E8000006800F0DBF980B202000421372001F095
:100E900055F9DFF84C230621002001F0B8FA51483B
:100EA000006800F0CBF980B202000621372001F083
:100EB00045F93DE000230C22DFF82813002001F063
:100EC00014FE0024032C0FDADFF81803215C42A083
:100ED00001F0A4FBC348225C08210A2000FB04F0B7
:100EE00001F02CF9641CEDE7BE488078BE4908701B
:100EF000962001F0C0FB01230C22BA49002001F02A
:100F0000F4FD0024032C10DAB648215C33A001F074
:100F100085FBB448225C09210A2000FB04F001F0A3
:100F20000DF9FFF7B0FA641CECE7962001F0A3FB83
:100F300010BD000080B5002001F082FF00280BD119
:100F40003348006801F09AFFA84AA94B01F0D6FF88
:100F500002F048F82E490860012001F071FF0028D6
:100F60000BD12B48006801F089FFA04AA14B01F08A
:100F7000C5FF02F037F82649086001BDDC0DFF1FF0
:100F80002D00000020200000380EFF1F80B500203B
:100F900001F056FC01F09AFF804900F0B7FE1349BA
:100FA0000860002001F067FB012001F049FC01F01E
:100FB0008DFF7A4900F0AAFE0A4908600B480068D4
:100FC0000849096800F0A0FD0949086001BD00005A
:100FD00000E100E080E100E025633000256331009E
:100FE000CC0DFF1F880DFF1FA40DFF1F840DFF1FD9
:100FF0008C0DFF1FD40DFF1FD80DFF1FD00DFF1F3D
:10100000900DFF1F2C04FF1F940DFF1F9C0DFF1F51
:101010003004FF1F980DFF1FA00DFF1F8D0EFF1F37
:10102000FFFFDFC00000E040010040410000A0C120
:1010300080B572480068012879D171480068401C69
:101040006F4908606E4800686E490968884205DB90
:1010500000206B49086001206B4908606B480068FC
:10106000401C6A4908606948006869490968884203
:101070000BDB00206549086001204F490860012012
:101080006449086001206449086064480068401CA5
:10109000624908606148006861490968884205DB67
:1010A00000205E4908600120444908605D480068EE
:1010B000401C5C4908605B4800685B4909688842DD
:1010C00005DB00205749086001203D49086057486A
:1010D0000068401C55490860544800685449096834
:1010E000884213DB3948006801F0F0FE01F0C6FECB
:1010F00000F0FAF801F0EAFE3F49086000204B4991
:10110000086001202F490860FFF715FB4948006877
:10111000401C4849086047480068474909688842B8
:1011200005DB00204349086001202249086001BD19
:10113000FC0DFF1FFFFF9FC180B5FFF779FF2F4810
:10114000006850F001002D49086001BD3911000010
:101150000000D0C10000B041F80DFF1FE00DFF1FDF
:10116000F40DFF1F0000A0400000B44200409C4668
:101170000000344300409C450050C34700504348A2
:10118000900EFF1F8E0EFF1F8F0EFF1FF4610000D9
:101190004004FF1F7C6100008861000000002041C6
:1011A00094610000A06100000000884200004042FD
:1011B000AC610000700DFF1F500DFF1F580DFF1F89
:1011C000600DFF1F680DFF1F0000C842800DFF1F4C
:1011D000B8610000FC610000C4610000D061000043
:1011E000DC610000800CFF1F8C0EFF1F7B14AE47DC
:1011F000E17A743FE17A74BFDC0DFF1F0C7103408C
:101200004C0DFF1F1404FF1F480DFF1F540DFF1F3F
:101210001804FF1F7C0DFF1F780DFF1F5C0DFF1FC3
:101220001C04FF1F640DFF1F2004FF1F6C0DFF1F18
:101230002404FF1F740DFF1F2804FF1F4100090E27
:101240007F3915D4D1F11F0114D4400007D2C00159
:1012500040F00040C84048BF6FF000407047C001F8
:1012600040F00040C8404CBF4FF000404042704743
:101270000020704700424FF0004058BFC043704705
:101280002DE9F84F0CB482468B46DDE90C89DDE987
:101290000E45DDE910675046594601F0A3FE474967
:1012A0000860DDE9000101F09DFE444948604046C8
:1012B000494601F097FE414988602000290001F06D
:1012C00091FE3E49C86000203C49C86130003900A9
:1012D00001F088FE39498862002038490861002001
:1012E00036494861BDE8F78FF8B504003348006817
:1012F000210000F009FC05003048C069290000F019
:10130000C1FB2E49C8612D48806A2C49C96900F08B
:101310007BFD04D22948806A2849C8610EE027482D
:10132000C0692649896A91F0004100F06DFD05D23F
:101330002248806A90F000402049C8611F484068F8
:10134000290000F077FC07001C48C1691B48806831
:1013500000F070FC390000F095FB070028001749E9
:10136000096900F0D1FB1549C96800F063FC390038
:1013700000F088FBFFF762FF0600104805613000AF
:10138000F2BD01000E4A12688A1A0E4B1B685A43BE
:101390000A2392FBF3F20A4B1B689A181000094AC1
:1013A0001268521C074B1A60064A12680B2A04DBAB
:1013B0000122044B1A60024A11607047000EFF1FA1
:1013C0002C0EFF1FE40BFF1F38B504000D0064B2A4
:1013D000002C03D0022C66D049D380E0DFF8CC0487
:1013E000006850F08070DFF8C41408606DB2002D02
:1013F0000BD0022D15D00ED3042D1ED017D3062DE1
:1014000027D020D3072D2AD02FE04FF48061412030
:1014100001F030FE2AE04FF44071042001F02AFE72
:1014200024E04FF44071052001F024FE1EE04FF44B
:101430008061442001F01EFE18E04FF44071072047
:1014400001F018FE12E04FF48061652001F012FEF9
:101450000CE04FF48061662001F00CFE06E04FF4D2
:101460008061672001F006FE00E038E037E0DFF839
:101470003C04006850F00070DFF8301408606DB272
:10148000002D02D0012D06D00BE04FF4407120203A
:1014900001F0F0FD06E04FF440710D2001F0EAFD8F
:1014A00000E01CE01BE0DFF80804006850F08070EA
:1014B000DFF8FC1308606DB2002D02D0012D06D0BC
:1014C0000BE04FF44071322001F0D4FD06E04FF400
:1014D0004071332001F0CEFD00E000E0FFE731BDB8
:1014E0002DE9F84F04000D0016001F0064B2002C17
:1014F0000DD064B2012C02D064B2022C02D16DB2C4
:10150000022D04DBFC21DFF8AC0301F00BFE290007
:1015100049B2200040B2FFF757FFDFF89C03006894
:101520004FF47A71484380465FEA1840B0FBF6F00A
:101530008146002082461FFA89F959FA0AF00128EB
:1015400002DB1AF1010AF6E75FFA8AFABAF1080F2C
:1015500005DB40F21711DFF85C0301F0E3FD38FA18
:101560000AF0B0FBF6F0814664B2002C03D0022CE6
:1015700019D00CD323E01FFA89F919F1010000FBFF
:1015800007F0DFF83813B0FBF1F0834617E01FFADD
:1015900089F919F1010000FB07F0DFF82013B0FB17
:1015A000F1F083460BE01FFA89F919F1010000FB05
:1015B00007F0DFF80813B0FBF1F08346FFE7DFF830
:1015C000000364B250F824006DB210EBC500DFF8E0
:1015D000F01264B251F824106DB211EBC501C96864
:1015E00031F00401C160DFF8D80264B250F8240081
:1015F0006DB210EBC5002821C1605FFA8AFA1AF0BB
:10160000070050F00800DFF8B81264B251F8241057
:1016100008601FFA89F9DFF8A80264B250F82400C4
:10162000C0F808900020DFF8981264B251F8241036
:10163000C864DFF88C0264B250F824006DB210EB7D
:10164000C5001FFA8BFBC0F810B00020DFF8701245
:1016500064B251F824104860BDE8F18F2DE9F041E3
:1016600004000D0016005FF0000864B2002C0ED0DC
:1016700064B2012C02D064B2022C02D16DB2022DF0
:1016800005DB4FF4A971DFF82C0201F04BFD64B2C9
:10169000002C03D0022C17D00BD320E0DFF824025B
:1016A000864205D340F25711DFF8080201F03AFDF7
:1016B00015E0DFF81002864205D340F25B11DFF837
:1016C000F40101F02FFD0AE0DFF8F801864205D3AE
:1016D00040F25F11DFF8DC0101F024FDFFE7DFF8E5
:1016E000E00164B250F8240080688046B8F1000F31
:1016F000F5D064B2002C03D0022C15D00AD31DE023
:1017000018F1010000FB06F0DFF8B011B0FBF1F0BA
:10171000070013E018F1010000FB06F0DFF89C1150
:10172000B0FBF1F0070009E018F1010000FB06F042
:10173000DFF88811B0FBF1F00700FFE7DFF8800168
:1017400064B250F824006DB210EBC5000761BDE82B
:10175000F08110B5040064B2012C07D064B2022CF1
:1017600004D04FF40771534801F0DCFC64B2200050
:10177000012802D0022811D021E04C48006850F026
:1017800000704A4908604FF4E0610C2001F072FCDF
:101790004FF4E0610D2001F06DFC15E04448006855
:1017A00050F08070424908604FF4C061322001F06F
:1017B00061FC4FF4C061332001F05CFC04E04FF4A5
:1017C00019713C4801F0AEFC3D4864B250F8240069
:1017D000406D50F004003A4964B251F82410486555
:1017E000374864B250F82400D0F8800050F0080068
:1017F000334964B251F82410C1F880000020304908
:1018000064B251F82410C8644FF6FF702C4964B2DA
:1018100051F8241088602A4864B250F82400D0F8A7
:10182000800050F00100264964B251F82410C1F83C
:101830008000234864B250F82400406D50F001004D
:101840001F4964B251F82410486500201C4964B255
:1018500051F82410486010BD38B5040064B2012C62
:1018600007D064B2022C04D040F28121114801F06B
:1018700059FC134864B250F8240040680500280061
:1018800000B232BD10B5040064B2012C07D064B2BE
:10189000022C04D040F28F21064801F043FC0020C6
:1018A000074964B251F82410486010BD3C800440E0
:1018B00030800440F05C0000380EFF1FA08601005D
:1018C000500BFF1FA1860100012110F01F02914063
:1018D0004C4A40B2430942F82310704738B504001F
:1018E0000D00002D03D12421474801F01BFC47487F
:1018F000006850F400004549086000204449086031
:10190000681E444964B222015050424864B210EB50
:101910000410C06850F001003E4964B211EB04119C
:10192000C8603C4864B210EB041080684008400076
:10193000384964B211EB041188600320354964B260
:1019400011EB0411886014F1440040B2FFF7BCFFB2
:1019500031BD38B504000D00002D03D147212A48C0
:1019600001F0E0FB2948006850F4000027490860B6
:10197000274800688008800025490860254864B22F
:1019800010EB0410806840084000224964B211EB5B
:1019900004118860681E1F4964B2220150501D481E
:1019A00064B210EB0410C06850F00100194964B231
:1019B00011EB0411C860174864B210EB0410806882
:1019C00040084000134964B211EB04118860012003
:1019D000104964B211EB041188600E4864B210EB38
:1019E0000410C068C007F8D50A4864B210EB0410B0
:1019F000C06850F00100074964B211EB0411C860DF
:101A000031BD000000E100E0405E00003C80044089
:101A1000007003400071034010B504004FF40070E3
:101A200094FBF0F101FB1041002903D01E210B486B
:101A300001F078FB0A48046010BD38B504000D00C1
:101A4000074800680749884203D03021034801F065
:101A500069FB044864B240F8245031BD905F000037
:101A600008ED00E00000FF1F40EA010C5FEA4C0CAB
:101A700007D0884205D14FEA400C1CF1807F98BF07
:101A80008042704790EA010F44BF81F0004100F0AE
:101A900043B800BF421A3CBF801A89184FF0004C6F
:101AA000C0F3C752FF2A24D0C1F3C75313B3D21ACD
:101AB000D2F1190327DD4CEA01214CFA03F321EAA4
:101AC0000303D140C20D4CEA0020401834BF20EA85
:101AD0000C004CEA5000D20553EA006373EB0C0C87
:101AE00052EB1020420012F1807F38BF7047C00DCA
:101AF000C0057047490212BF9A4200EB5120F8E737
:101B0000D2F11703D9D5704790EA010F44BF81F095
:101B10000041FFF7BFBF00BF431A4FF000423EBF76
:101B20005340C01AC91800BFD3095FEAD05C13EB59
:101B3000400F34BFB3EB410F40E07CEBD1530CD3EB
:101B400042EA012122D8D1EB402009D3400A28BF24
:101B50005FEA500140EBCC507047401A15D040026C
:101B6000B0FA80F2521C9040400A4FEA3C23B3EB9B
:101B7000026384BF00EB730007E040F400001A1614
:101B8000DB07C2F10102D04018437047182BFCDC80
:101B900031FA03F202FA03F3591A38BF42F0010294
:101BA000D2EB40203CBF4000ACF1010C5FEACC5CC2
:101BB000C20572F100414CEB5020704713EB400F0F
:101BC0000FD24B0009D0ACEBD153022B03DB4902FF
:101BD000172BDDDD70479143401A4300D5D100201B
:101BE000704713EB410FD0D36FF00000704750F8EF
:101BF000041B61B150F8042BD30744BFA9F10103C2
:101C00009A18002342F8043B091FFAD1EFE7704706
:101C10004FF0807C1CEB400F94BF1CEB410F05E0A4
:101C200040EA010C5FEA4C0C01D28142704718BFB8
:101C300088427047FF2212EAD05C1DBF12EAD153DE
:101C4000944593422BE09C44D30780EA01021A405A
:101C500043EA002043EA0121A1FB0030410038BFE4
:101C600040007CF17F010BDBFE294ADA5B0842EA87
:101C7000C15153EA006373F1004C51EB10207047DF
:101C8000D1F1080CDCF120012FDB5B0810FA01F127
:101C90000B4373F1004120FA0CF05041704794451A
:101CA0001CBF02EAD153934280EA010202F00042D3
:101CB0001DD0400019D0490017D05BB9634514D03E
:101CC0000902B1FA81F39940BCEB030CC00140F06A
:101CD0000040C1E70002B0FA80FC10FA0CF0B3EB50
:101CE0000C0CC90141F00041B6E7100070474000FC
:101CF0000AD0490008D010F1807F94BF11F1807F95
:101D000002E042F0FF407047D043704710B5FF2318
:101D100013EAD0541DBF13EAD1529C429A4239E0D3
:101D2000A41ADA0780EA0103134042EA012142EAD9
:101D30000020421A3CBF641E01EB4202090AB2FBBA
:101D4000F1FE01FB1E221202B2FBF1F001FB102298
:101D50006EF30F201202B2FBF1FE4EEA00207F3438
:101D600006DDFE2C24DA53EA500050EBC45010BDBF
:101D7000D4F1020401FB1E2240F08071192C1DDCFD
:101D800021FA04F0C4F12004A140114371F1004292
:101D9000584110BD9C421ABF03EAD1529A420FE04B
:101DA00080EA010E0EF00043400004D0490016D135
:101DB00043F0FF4010BD490008BFD343180010BDD9
:101DC0009C4205D1D21AF7D001F00041484010BD25
:101DD0004A0212BF0846484000F0004010BD4AB910
:101DE0000902B1FA81F2914044B1A418C00140F057
:101DF00000409EE7C90141F0004152420002B0FAA2
:101E000080F4A040141B94E74FF0807C1CEB400F43
:101E100094BF1CEB410F05E040EA010C5FEA4C0C5B
:101E200001D28842704718BF8142704740000DD2EE
:101E3000010E7F390AD4D1F11F0104D4C00140F052
:101E40000040C84070477FF0000070470020704796
:101E500008210122DFF830361A600022DFF82C3624
:101E60001A600A00511ED2B2002A15D0020604D50B
:101E70000122DFF81C361A6003E00022DFF810367A
:101E80001A600122DFF804361A6000BF0022DFF872
:101E9000FC351A604000E4E770470000082100228A
:101EA000DFF8E4351A600022DFF8E0351A600A0036
:101EB000511ED2B2002A15D0020604D50122DFF845
:101EC000D0351A6003E00022DFF8C4351A60012221
:101ED000DFF8B8351A6000BF0022DFF8B0351A60AD
:101EE0004000E4E7704738B504000D00B5F150003C
:101EF000C0B2FFF7D3FFE4B2200950F01000C0B227
:101F0000FFF7CCFF14F00F0050F00100C0B2FFF754
:101F1000C5FF31BD70B5040000200500EDB2082DED
:101F200017DAB5F15000C0B2FFF7B8FF0120FFF794
:101F3000B5FF1020FFF7B2FF00200600F6B2802E9A
:101F400005DA2000C0B2FFF783FF761CF6E76D1CB0
:101F5000E4E770BD002808D040F2375211000A00B3
:101F6000511E002AFBD1401EF4E7704710B5040053
:101F70002020FFF793FF2000C0B2FFF78FFF10BDB6
:101F800010B5040054F04000C0B2FFF787FF10BD49
:101F900010B504008120FFF781FF2000C0B2FFF7D9
:101FA0007DFF10BD10B504008D20FFF777FF54F0C2
:101FB0001000C0B2FFF772FF10BD10B5040054F05E
:101FC000A000C0B2FFF76AFF10BD10B5040054F0C6
:101FD000A400C0B2FFF762FF10BD10B5040054F0BA
:101FE000A600C0B2FFF75AFF10BD10B50400A8202C
:101FF000FFF754FF2000C0B2FFF750FF10BD10B52F
:10200000040054F0AE00C0B2FFF748FF10BD10B599
:10201000040054F0C000C0B2FFF740FF10BD10B57F
:102020000400D320FFF73AFF2000C0B2FFF736FFCD
:1020300010BD10B50400D520FFF730FF2000C0B25E
:10204000FFF72CFF10BD10B50400D920FFF726FFC5
:102050002000C0B2FFF722FF10BD10B50400DA2047
:10206000FFF71CFF54F00200C0B2FFF717FF10BDCE
:1020700010B50400DB20FFF711FF2000C0B2FFF70E
:102080000DFF10BD80B5012201210D2000F008FADE
:10209000012201210C2000F003FA012201219920E4
:1020A00000F0FEF901220121982000F0F9F9012049
:1020B000DFF8D81308600020DFF8D813086032205A
:1020C000FFF748FF0120DFF8CC1308600020FFF77E
:1020D00096FF8020FFF7ADFF3F20FFF786FF00202F
:1020E000FFF79DFF0020FFF74BFF0420FFF75AFF8B
:1020F0000220FFF73BFF0120FFF75FFF0820FFF7FB
:1021000086FF1020FFF7A9FFCF20FFF741FFF12046
:10211000FFF799FF4020FFF7ABFF0020FFF755FFC7
:102120000020FFF75AFF0120FFF769FF0020FFF7AB
:10213000F1FE00210020FFF7D6FE01BD2DE9F84F8A
:1021400004000D0093461FFA8BFB42F210709BFBBC
:10215000F0F08DF800001FFA8BFB4FF47A709BFBB8
:10216000F0F00A2190FBF1F201FB120006001FFAC9
:102170008BFB64209BFBF0F00A2190FBF1F201FB4A
:10218000120007001FFA8BFB0A209BFBF0F00A21CC
:1021900090FBF1F201FB120080461FFA8BFB0A2034
:1021A0009BFBF0F100FB11B081462900C9B2200071
:1021B000C0B2FFF798FE002082465FFA8AFABAF1B1
:1021C000280F05DA0020FFF743FE1AF1010AF4E7B1
:1021D000691CC9B22000C0B2FFF785FE002082460C
:1021E0005FFA8AFABAF1280F05DA0020FFF730FE0D
:1021F0001AF1010AF4E79DF8000000282CD09DF8A0
:1022000000202900C9B22000C0B200F08BF83200D3
:10221000D2B22900C9B214F10800C0B200F082F8AD
:102220003A00D2B22900C9B214F11000C0B200F0D5
:1022300079F84246D2B22900C9B214F11800C0B2EE
:1022400000F070F84A46D2B22900C9B214F1200059
:10225000C0B200F067F863E0F6B2002E23D032007F
:10226000D2B22900C9B22000C0B200F05BF83A0037
:10227000D2B22900C9B214F10800C0B200F052F87D
:102280004246D2B22900C9B214F11000C0B200F027
:1022900049F84A46D2B22900C9B214F11800C0B2B6
:1022A00000F040F83CE0FFB2002F1AD03A00D2B262
:1022B0002900C9B22000C0B200F034F84246D2B2C0
:1022C0002900C9B214F10800C0B200F02BF84A4648
:1022D000D2B22900C9B214F11000C0B200F022F845
:1022E0001EE05FFA88F8B8F1000F11D04246D2B272
:1022F0002900C9B22000C0B200F014F84A46D2B298
:102300002900C9B214F10800C0B200F00BF807E0D0
:102310004A46D2B22900C9B22000C0B200F002F889
:10232000BDE8F18FF8B504000D001600F6B23001DB
:10233000FF3007002900C9B22000C0B2FFF7D3FD6B
:10234000DFF85401385CFFF783FD7F1CDFF848019C
:10235000385CFFF77DFD7F1CDFF83C01385CFFF740
:1023600077FD7F1CDFF83001385CFFF771FD7F1CC3
:10237000DFF82401385CFFF76BFD7F1CDFF81801E4
:10238000385CFFF765FD7F1CDFF80C01385CFFF758
:102390005FFD7F1CDFF80001385CFFF759FD7F1CF3
:1023A000691CC9B22000C0B2FFF79DFDDFF8E8004C
:1023B000385CFFF74DFD7F1CDFF8DC00385CFFF771
:1023C00047FD7F1CDFF8D000385CFFF741FD7F1C24
:1023D000DFF8C400385CFFF73BFD7F1CDFF8B80076
:1023E000385CFFF735FD7F1CDFF8AC00385CFFF789
:1023F0002FFD7F1CDFF8A000385CFFF729FD7F1C54
:10240000DFF89400385CFFF723FD7F1CF1BD2DE958
:10241000F84304000D00160000275FF000085FF08D
:1024200000095FFA89F919F8060000282AD05FFA36
:1024300089F919F8060020380700E4B27F2C02DB86
:10244000002004006D1C2900C9B22000C0B2FFF7B3
:102450004AFD002080465FFA88F8B8F1060F0DDAD1
:102460000E48FFB2062101FB07005FFA88F818F852
:102470000000FFF7EDFC18F10108ECE7A41D19F1CD
:102480000109CEE7BDE8F1833400FE436020FE433E
:102490006420FE433000FE43104F0000BC58000093
:1024A00070B504000D0016004FF480712000C0B21A
:1024B00000F0E0FD6DB2002D11D15648E4B261117B
:1024C00050F821005349E4B2621151F822104969D1
:1024D000012214F01F039A409143416136E04D48B8
:1024E000E4B2611150F821004A49E4B2621151F896
:1024F00022104969012214F01F039A4011434161DF
:10250000F6B2002E11D14348E4B2611150F8210017
:102510000068012114F01F02914088433D49E4B254
:10252000621151F82210086010E03A48E4B26111DB
:1025300050F821000068012114F01F029140084367
:102540003449E4B2621151F82210086070BD10B431
:10255000C9B2002911D12F4AC0B2431152F8232029
:102560001268012310F01F04A3409A43294BC0B204
:10257000441153F824301A6010E0264AC0B24311C7
:1025800052F823201268012310F01F04A3401A43BD
:10259000204BC0B2441153F824301A6010BC70476D
:1025A00010B504001B48E4B2611150F821004069E5
:1025B00014F01F01C840C00703D47B21164800F067
:1025C000B1FD1448E4B2611150F82100012114F06A
:1025D0001F029140C16010BD10B504000D48E4B267
:1025E000611150F82100406914F01F01C840C00774
:1025F00003D58C21084800F095FD0648E4B261112E
:1026000050F82100006914F01F01C84010F00100CB
:1026100010BD00005C0BFF1F985D00000EB400B5FC
:1026200082B003A90091024600AB0121034878441F
:102630000A3000F0C1FD06BC5DF810FB1D3B000038
:1026400010B50400002C15D0B4F1807F03D32921EC
:102650000F4800F067FD00200E4908600E48046036
:1026600000200E49086005200A49086009480068F2
:10267000C003FBD510BD10B504002000441E002887
:1026800004D007480068FFF7DBFFF6E710BD000045
:10269000445C000010E000E014E000E018E000E01E
:1026A000300EFF1F38B50400200040B200F05BF987
:1026B0005FF4E131032000F069FA220052B2DFF842
:1026C00090040178012000F0D1F9220052B2DFF825
:1026D00084040178022000F0C9F9220052B2A92135
:1026E000032000F0C3F9220052B21721042000F0A9
:1026F000BDF9220052B20021052000F0B7F92200F6
:1027000052B202210A2000F0B1F9220052B2012196
:102710000B2000F0ABF9220052B25021062000F04D
:10272000A5F9220052B21421072000F09FF92200DF
:1027300052B2C021082000F099F9220052B21221B1
:10274000092000F093F923005BB20C22DFF8081493
:10275000002000F0CAF900250C2D07DADFF8F80395
:10276000295C36A0FFF75AFF6D1CF5E731BD38B57F
:102770000400002500200500280040B2DFF8DC132B
:10278000097800B209B288423FDA23005BB2022224
:10279000DFF8CC13212000F0A8F9DFF8C40340785B
:1027A0000002DFF8BC1309784018DFF8B413897809
:1027B00010EB0140DFF8AC130860DFF8AC030068F1
:1027C000DFF8A01309680818DFF89C130860DFF829
:1027D00094030068DFF894130968884205D2DFF893
:1027E00084030068DFF884130860DFF8840300685E
:1027F000DFF870130968884205D2DFF868030068C3
:10280000DFF86C1308606D1CB6E7DFF85C03006846
:10281000DFF848130978B0FBF1F0DFF858130860CF
:102820000020DFF844130860DFF848030068DFF891
:1028300048130860DFF83C03006832BD25630000E0
:102840002DE9F84F81465FF0000A5FF0000B002091
:1028500007007FB2142F0ADA484640B2FFF787FF1D
:10286000DFF818137FB241F827007F1CF1E7002042
:10287000040064B2142C16DADFF8000364B250F8D6
:102880002400B0F5004F0CD2DFF8F00264B250F82B
:102890002400DFF8EC124FFA8AFA41F82A001AF104
:1028A000010A641CE5E70020060076B24FFA8AFAB6
:1028B000BAF10100864232DA002005006DB24FFA0B
:1028C0008AFA76B2BAEB0600854226DADFF8B00261
:1028D0006DB210EB85004068DFF8A4126DB251F8BC
:1028E0002510884217D2DFF898026DB250F8250003
:1028F0008046DFF88C026DB210EB85004068DFF88F
:1029000080126DB241F82500DFF874026DB210EB51
:102910008500C0F804806D1CD0E7761CC5E7012057
:1029200007007FB24FFA8AFABAF10100874208DA4B
:10293000DFF84C027FB250F8270010EB0B0B7F1C26
:10294000EFE74FFA8AFABAF102009BFBF0F001F0D0
:102950002BFADFF83022DFF8303201F03DFA01F0D7
:102960000DFBBDE8F28F10B5040064B2002C1FD13E
:10297000012200211020FFF793FD012201211120E7
:10298000FFF78EFD012201214320FFF789FD002280
:1029900001210F20FFF784FD01214320FFF7D7FD20
:1029A00000210F20FFF7D3FD01211120FFF7CFFDFC
:1029B00064B2012C1FD1012200211020FFF770FD0D
:1029C000012201211120FFF76BFD0122012140208E
:1029D000FFF766FD002201210F20FFF761FD0121B5
:1029E0004020FFF7B4FD00210F20FFF7B0FD0121CB
:1029F0001120FFF7ACFD10BD70B5040000250026C6
:102A000000200500EDB2082D2DDA200608D50121A1
:102A10001120FFF79CFD01211120FFF798FD07E031
:102A200000211120FFF793FD00211120FFF78FFDFA
:102A30006400760000210F20FFF789FD00210F20A0
:102A4000FFF785FD1020FFF7C7FD002801D056F0E5
:102A5000010601210F20FFF77AFD01210F20FFF76A
:102A600076FD6D1CCEE73000C0B270BD70B50400BD
:102A70000D00160076B2002E04D100214320FFF78E
:102A800066FD03E000214020FFF761FD0220FDF715
:102A900006FD14F07F042000C0B2FFF7ADFF00BFB9
:102AA00000BF00BF00BF00BF00BF00BF00BF00BF2E
:102AB00000BF00BF00BF00BF00BF00BF00BF00BF1E
:102AC00000BF00BF00BF00BF2800C0B2FFF794FFE7
:102AD00040F2A460FDF7E3FC01214320FFF737FD3E
:102AE00001214020FFF733FD70BD2DE9F0410400C6
:102AF0000D0016001F007FB2002F04D100214320DB
:102B0000FFF725FD03E000214020FFF720FD54F0F2
:102B100080042000C0B2FFF76FFF002080465FFAFC
:102B200088F8F6B2B04509D20020FFF765FF5FFADA
:102B300088F808F8050018F10108F0E701214320A2
:102B4000FFF705FD01214020FFF701FDBDE8F08101
:102B50001004FF1F1104FF1F800CFF1F1204FF1F32
:102B60008C0CFF1F900CFF1F9C0CFF1F980CFF1F6D
:102B7000940CFF1FA00CFF1FA40CFF1FA80CFF1F2D
:102B8000F80CFF1FCDCCCCCCCCCCEC3F2DE9F843DE
:102B900004000D0064B2002C08D0022C2CD018D3F5
:102BA000042C4FD03BD3052C5FD071E0DFF80C0232
:102BB000006850F48060DFF8041208604FF4407140
:102BC000662000F057FA4FF44071672000F052FA87
:102BD0005EE0DFF8E801006850F40060DFF8DC1127
:102BE00008604FF44071432000F044FA4FF4407104
:102BF000442000F03FFA4BE0DFF8C001006850F4D9
:102C00008050DFF8B81108604FF44071632000F085
:102C100031FA4FF44071622000F02CFA38E0DFF80E
:102C20009C01006850F40050DFF8901108604FF4E8
:102C30004071852000F01EFA4FF440712B2000F007
:102C400019FA25E0DFF87801006850F48060DFF8B9
:102C5000701108604FF440714E2000F00BFA4FF4F1
:102C600040714F2000F006FA12E0DFF854010068CE
:102C700050F40060DFF8481108604FF4407189207B
:102C800000F0F8F94FF44071882000F0F3F9FFE705
:102C9000DFF8300164B250F82400C07810F0F3007F
:102CA000DFF8201164B251F82410C870DFF8140165
:102CB00064B250F824008078424964B251F824107C
:102CC000887064B2002C02D064B2012C06D13E4858
:102CD00000684FF47A714843814605E03B4800683C
:102CE0004FF47A71484381462801B9FBF0F00600A1
:102CF000B6B2B6F5005F02DB41F6FF700600B9FB25
:102D0000F5F0B6B2B0EB06100700BFB2202F04DB1F
:102D100040F203112E4800F005FA2A4864B250F838
:102D20002400007810F0E0008046B6B2300A10F0BF
:102D30001F0050EA0800234964B251F824100870BB
:102D4000204864B250F8240046701E4864B250F81F
:102D50002400807A10F0E000804617F01F0050EA4F
:102D60000800184964B251F824108872154864B2FA
:102D700050F82400007C50F08800124964B251F8E9
:102D8000241008740F4864B250F82400C07850F042
:102D90000C000C4964B251F82410C870BDE8F183EE
:102DA000084A40B252F8202012791206F8D5054A96
:102DB00040B252F82020D1717047000034800440A6
:102DC00028800440CC0BFF1F300EFF1F380EFF1F62
:102DD000E85E000010B5040064B2032C0DDA002296
:102DE0000021244864B2205CFFF75AFB03212148EC
:102DF00064B2205C00F060F914E0032004002000BD
:102E0000441E40B200280DD000220021194864B2AF
:102E1000205CFFF745FB0321164864B2205C00F0FC
:102E20004BF9ECE710BD10B50400124864B2205C09
:102E3000FFF7D2FB002801D1002000E0012010BDE7
:102E400010B50400200040B2FFF7EDFF00280FD1BD
:102E5000094800680A2101FB00F10320FEF779FD13
:102E6000200040B2FFF7DFFF002801D1002000E082
:102E7000012010BDE80BFF1F380EFF1F5FF0FF0C95
:102E80001CEAD05114BF614506E0C110400721F093
:102E9000E04101F16051704779B900F00041000252
:102EA0000AD0B0FA80FC00FA0CF001F16051A1EBFD
:102EB0000C5101EBD0214005704741020CBF40F49A
:102EC000E0016FF00001002070470000002840F191
:102ED0000780F446404200F003F850F0004060479D
:102EE0000AD0B0FA80F18840D1F19D01C9050206EF
:102EF00072F1004241EB10207047000070B44FF0B7
:102F0000004591EA030C44BF6B4001F06DB800BF6F
:102F1000841A71EB030603D2001BB14112197341ED
:102F20004FF4001C1CEB410F34BF7CEB430443E027
:102F30000C0DA4EB1356352E50DC45EAC323DB0AF7
:102F400045EAC121C912B6F120050DDD63FA05F687
:102F5000EB4086EA0305124218BF45F00105C01890
:102F600051F100010CD213E062FA06F5F24055402F
:102F7000F3415A40B340F3405A408018594107D3B7
:102F800049085FEA30005FEA350528BF45F00105D2
:102F900001F58011420875F1004250F1000041EB4B
:102FA000045170BC4FF4001C1CEB410F38BF70473C
:102FB0000020090D090570471CEB410F10D252EAA1
:102FC00043060BD0BCEB410F05D80C0DAB43661E7E
:102FD000342EB5DD02E0AB438018594170BC704718
:102FE00070BC70474FEAF17CBCF1E04C2CBFBCF5E3
:102FF000001F11E05FEA4C0C34BFBCF17F5F2EE094
:103000005FEA9C0C4FEA0C1C4FEA3C0CC10071F1CA
:1030100000414CEB50707047C90241EA5051C00268
:1030200018BF41F0010141F000414FEA6C50C0F17E
:103030000900212810D240EACC7CCCF1200C11FAF6
:103040000CF070F10040CCF1200C21FA0CF00CF0E7
:10305000004C40EB0C0070474FEACC7070474900C1
:1030600011F5001F04D84FEACC10FF30C00570479F
:10307000C817704710B4294A12684FF40073C0B2E1
:103080004409A3401A43254B1A60254AC0B2431194
:1030900052F82320012310F01F04A340C2F8A030EF
:1030A0001F4AC0B2431152F82320C0B210F01F03D0
:1030B00042F8231010BC704710B4184A12684FF43D
:1030C0000073C0B24409A3401A43144B1A60144A57
:1030D000C0B2431152F82320012310F01F04A34073
:1030E000C2F8A03031F4E0610D4AC0B2431152F889
:1030F0002320C0B210F01F0352F8232012F4E06224
:103100001143074AC0B2431152F82320C0B210F055
:103110001F0342F8231010BC7047000038800440A1
:10312000B80BFF1F38B504000D00002001F012F8A5
:103130002A0021001B48FFF771FA002001F027F850
:10314000194800684FF47A7101FB00F10320FEF783
:1031500000FCEDE738B504000D00210049B2032062
:10316000FFF71EFE200032BD10B510480468012094
:1031700000F0F0FF012001F00AF80D48E4B20F2141
:1031800001FB0402E4B221000A48FFF747FA0648AF
:1031900000684FF47A7101FB00F10320FEF7D9FBC0
:1031A000E8E70000E8600000380EFF1F04ED00E0D3
:1031B0004804FF1F846000002DE9F04FA1B0824653
:1031C000002017461D4602910B900DF1440B6FF045
:1031D00000490AE017F8011B0298D0470290002826
:1031E00000F0A3820B98401C0B90387808B90B981C
:1031F0009DE22528EED100200590069007900890CA
:1032000009900A9001E040F0010017F8011F202901
:10321000F9D023290DD02B2904D02D2906D030290F
:103220000AD00CE040F0020080B2EEE740F004006B
:10323000FAE740F00800F7E740F01000F4E72A2929
:103240000ED12968296051F8042B29600D92002ABB
:1032500004D5514240F004000D9180B27F1C11E072
:1032600000210D9109E00D99494505D001EB81033D
:1032700002EB430130390D917F1C3A78A2F1300105
:103280000A29F0D339782E2903D04FF0FF310C9161
:103290001DE017F8011F2A2907D1296829607F1C22
:1032A00051F8042B29600C9211E000210C9109E0E7
:1032B0000C99494505D001EB810302EB43013039FC
:1032C0000C917F1C3A78A2F130010A29F0D3ADF8B5
:1032D00038000FF6B820397800F064FF08B117F80D
:1032E000010B8DF83A009DF83A00682802BF397842
:1032F0006829622005D06C2804BF38786C2803D177
:1033000071208DF83A007F1C11A8049017F8014B2A
:10331000B4F1250024D02038022840F2C6801338AA
:1033200000F0EC800B3800F05081401E00F0258149
:10333000401E022840F2B980001F00F01E81401F8D
:1033400000F08480401E00F0D980401E29D0C01EAD
:103350000CD0801E00F0D280C01E00F0CF803EE175
:103360000120059025208DF8440044E1286828605C
:1033700050F8044B28600394DDF83080B8F1000F5A
:1033800004D5204600F01AFF804607E0424600219F
:10339000204600F02FFF08B1A0EB0408CDF81880FC
:1033A00029E1296829604FF03C0851F8040B296095
:1033B0000021CDE9000111A80390DDE90001049C82
:1033C00011B908B90C9ACAB10206120FA0EB021289
:1033D0003032A8F1010ED2B2F0463A2AA8BF273205
:1033E00000090EF8042040EA0170090908BF00280E
:1033F00004D0039A08EB04039A42E5D308EB0400D7
:103400000390C8F13C010C980691814209DA401AF8
:1034100008904FF6EF71BDF838000840ADF838005D
:10342000E9E0002840F1E7809DF8380000F0140042
:10343000102840F0E0800D98059A801A089A801AAA
:10344000401A0128C0F2D7800890D4E09DF83A00D5
:1034500062281AD0682806D06A280CD06C281CD0A4
:10346000712808D019E02868286050F8041B2860EB
:103470000B980880BFE02868286050F8042B28606B
:103480000B98C117C2E90001B5E02868286050F820
:10349000041B28600B980870ADE02868286050F87D
:1034A000041B28600B980860A5E02868C01D20F068
:1034B00007022A60D2E9000108322A60CDE9000142
:1034C000002903D5012005902D200CE0BDF838001F
:1034D000810703D5012005902B2004E0C00704D507
:1034E0000120059020208DF84400059911A80818A6
:1034F0000390214600A800F0D7F97CE09DF83A201F
:103500006C2A0DD0712A18BF6A2A09D12868C01DFB
:1035100020F007032B60D3E9000108332B6005E09E
:103520002968296051F8040B29600021CDE90001C8
:10353000682A08BF80B207D0622A08BFC0B203D091
:10354000742A18BF7A2A02D10021CDE900019DF822
:103550003800000730D5DDE90001002908BF002848
:103560002AD044F02000782826D130208DF844005D
:103570008BF80140022005901EE029469DF83A0094
:1035800000F0D8F8CDE90001002904DA0598411CC3
:1035900005912D210EE0BDF83800810704D505986E
:1035A000411C05912B2105E0C00705D50598411C5C
:1035B0000591202100F80B10059911A80818039017
:1035C000214600A800F0EDF815E0012005902868DC
:1035D000286050F8041B28608DF844100BE001208F
:1035E000059025208DF84400002C04D00598411C3E
:1035F000059100F80B400D980599401A0899401A5A
:103600000699401A0999401A0799401A0A99A0EB9D
:1036100001089DF8380040070FD420208DF84000A5
:10362000002408E0012310AA00A9504600F097FBEF
:1036300000287AD1641C4445F4DB059C11AE0AE0F5
:1036400016F8011B0298D047029000286DD00B9805
:10365000401C0B90641E002CF2D130208DF84000ED
:103660000026089C08E0012310AA00A9504600F09B
:1036700076FB002859D1761CA642F4DB069C039EFB
:103680000AE016F8011B0298D047029000284CD09F
:103690000B98401C0B90641E002CF2D130208DF84A
:1036A00040000026099C07E0012310AA00A950460B
:1036B00000F055FBC8BB761CA642F5DB03980699C3
:1036C000079C0E1809E016F8011B0298D0470290DB
:1036D00058B30B98401C0B90641E002CF3D1302083
:1036E0008DF8400000260A9C07E0012310AA00A9DB
:1036F000504600F034FBC0B9761CA642F5DB9DF8BD
:10370000380040077FF571AD20208DF8400000247F
:1037100000E0641C4445BFF668AD012310AA00A96F
:10372000504600F01CFB0028F3D04FF0FF3021B0D2
:10373000BDE8F08F622826D068281DD06A2808D0FE
:103740006C2827D0712804D0742823D07A280CD074
:1037500020E00868C01D20F007000860D0E90023C1
:10376000083008601946104670470A680A6052F827
:10377000040B0A60002170470A680A6052F8040BC3
:103780000A6000B20BE00A680A6052F8040B0A6093
:1037900040B204E00A680A6052F8040B0A60C117DC
:1037A00070472DE9FA4E05460A462F696F2A08BF71
:1037B000082405D041F02000782814BF0A241024E2
:1037C000D5E900013C2681468A46642A18BF692A49
:1037D00005D1002903DAD9F100096AEB4A0ABAF1E6
:1037E000000F08BFB9F1000F0CD1286B50B9082C9D
:1037F00036D195F83800000732D530203B2687F8BF
:103800003B002DE0E31748465146224600F01EFDDE
:10381000A4FB0023A9EB02023032A6F1010BD2B2C5
:103820005E463A2A03DB9DF80030513B9A180BF8AC
:10383000072081465FEA010A08BFB9F1000F03D0F3
:10384000E868F1198842DDD3082C09D195F83800D1
:10385000000705D5F05D302802D0761E3020F055E7
:10386000C6F13C00A861F119E960296B884208DAC9
:10387000081A28624FF6EF71288F08402887BDE8A4
:10388000F38E00290ED595F8381001F01401102997
:1038900008D1696B6A69891A2A6A891A081A012883
:1038A000A8BF2862BDE8F38E2DE9F34F8BB0D0E9B5
:1038B0000089006B01AF002848BF062005D404BF73
:1038C00041F02000672802D101200B99086340F2E3
:1038D000FF720B984168C1F30A50904220D108034F
:1038E00002BF0B98006800280AD10B990320886159
:1038F0009DF8300061381A2858D30FF2A44109E02E
:103900000B99032088619DF8300061381A284AD34A
:103910000FF284410B98C068032200F00FFD00E114
:10392000012807DA0B9800F044FD012802DB002390
:103930000026EDE00B9A526840F2FE3161F31E5210
:103940000B994A6040F2FE31461A40464946002231
:10395000002300F04FFD38BF89F0004936B247F22E
:10396000975070434949DFF828B190FBF1F636B221
:10397000C6F107079246012F1BDBF80707D5524611
:103980005B464046494600F027FA804689467F104C
:103990005046594652465B4600F01EFA82468B4618
:1039A000002FEAD126E00FF2EC31B3E70FF2EC3151
:1039B000B0E77F420024374D12E0F80707D55246A2
:1039C0005B462046294600F007FA04460D467F1064
:1039D0005046594652465B4600F0FEF982468B46F9
:1039E000002FEAD14046494622462B4600F01AFDF8
:1039F000804689469DF8300040F02005662D0CBFBA
:103A000006F10A0006200B99096B4718142FA8BF6E
:103A1000132730208DF804000DF10504DFF878B08D
:103A2000012F3BDB4046494600F0BEFA014604F157
:103A3000080204234FF00A0CB1FBFCFC0CEB8C04D5
:103A4000A1EB4401303102F8011D0A21BCFBF1FE5B
:103A50000EEB8E04ACEB44043034714602F8014D99
:103A60005B1EE7D1083F02F10804012FD8DB00F00C
:103A7000A5F902460B464046494600F0ABFA002243
:103A80005B4600F0A9F980468946CBE7A086010095
:103A9000000024400000F03F84D797410DF105005D
:103AA000201A0DF1050702E0401E761E7F1C3978B2
:103AB0003029F9D0662D02D136B2711C03E0652D94
:103AC0000CBF012100210B9A126B8B181BB298427C
:103AD000B8BF03461BB219001AD4814204DAC85D8C
:103AE0003528A8BF392000DA3020CA19521E00E05C
:103AF0005B1E12F80159491E8542F9D0392802D1BE
:103B0000C85D401CC855002902D57F1E5B1C761C71
:103B100036B29DF830100B9800961BB23A4600F072
:103B200003F80DB0BDE8F08F2DE9F04786B00646EA
:103B30008A4690461D4600F0B6FD406A376B90F805
:103B40000090012D02DA01250FF258284AF02000DA
:103B5000BDF93840662808BF641C13D0672840F0C0
:103B6000888014F1040F73DBBC4271DA96F83800D8
:103B7000641C000702D4BD42B8BF2F4624B23F1BCD
:103B800048BF0027F068B16924B2012C21DA302344
:103B90004A1C0B54012F03DA96F83810090702D596
:103BA00002F80090521CB261E742B8BF7C4224B2D6
:103BB0006142E7197162AF42B8BF3D462DB2F5616F
:103BC0002A46B3694146181800F0B8FB781BB0626A
:103BD000AEE00818A54216DA2A46414600F0AEFBD0
:103BE000B1696918B161601B7062012F03DA96F840
:103BF0003800000705D5F06801F80090F069401C16
:103C0000F061B76294E02246414600F097FBB0694C
:103C100020182D1B012F03DA96F83810090703D559
:103C2000F16800F80190401C2DB2B061AF42B8BFFE
:103C30003D46F068B3692DB22A4604EB0801181816
:103C400000F07CFBB0692818B061781B70626FE0EF
:103C5000BD4204DA96F83810090758BF2F467F1E78
:103C600048BF0027BAF1670F0CBF4FF0650A4FF04D
:103C7000450AB169F06818F8013B0B544A1C012F42
:103C800005DA96F83810090758BFB26115D502F861
:103C90000090531CB361012F0FDB6D1E2DB2AF429C
:103CA000B8BF3D462DB22A464146181800F046FBE3
:103CB000B0692818B061781B7062F068B16901EBD7
:103CC0000008200008F801AB03D42B2008F8010BF2
:103CD00003E02D2108F8011B6442002502AF08E033
:103CE0000A2200A800F0F8FC019807F8010B6D1CEF
:103CF000009C21B20129F3DA022D06DA4AF02000F5
:103D0000652804BF302008F8010B4DB9302008F8B1
:103D1000010B07E06D1E02A8285C303008F8010B8B
:103D2000012DF7DAF068B1690818A8EB0000F0611E
:103D300096F8380000F0140010280DD17069B169B0
:103D40000818716A0818F1690818B16A0818716BC7
:103D50008842BCBF081A306206B0BDE8F087F8B5EB
:103D600004460D4616461F46002004E0E86A401C43
:103D7000E8627F1E002047B116F8011BA868A04723
:103D8000A8600028F2D14FF0FF30F2BD686A6C7471
:103D90007A4C00006E616E004E414E00696E660006
:103DA000494E460030000000010040F10980F44611
:103DB000404200F005F851F000416047010000BFAB
:103DC00009D0B0FA80F18840C91CC1F584610905A9
:103DD00001EBD02140057047B0B581EA030C0CF02F
:103DE000004C40F2FF7515EA11541DBF15EA135738
:103DF000AC42AF4239E0E41923EA455343F480135F
:103E0000C90241F0004141EA505EC7021100A7FB20
:103E1000020200284FF00000EEFB01204FF00001ED
:103E2000E3FB072118BF42F001024018002149417D
:103E3000E3FB0E01A4F580640F0302D2520040415F
:103E4000494154F101046CDD470872F1004250F120
:103E5000000051EB0451A1F580115CBF41EA0C0157
:103E6000B0BD4CEA05510020B0BD05EA1357AC4285
:103E700014BFAF4241E050EA410E1CBF52EA430E6C
:103E800002E061460020B0BD24423C441BD15FEA01
:103E9000070EF6D0090302BF01460020AEF1140E52
:103EA000B1FA81F7AEEB070401FA07FE0C37C7F150
:103EB000200100FA07F7C8404EEA000E23EA4553F6
:103EC00043F48013A2E733F00043B3FA83F704BF4F
:103ED000B2FA82FE77440B3FE41BB7F1200E2FBFEE
:103EE00002FA0EF3BB40C7F1200E22FA0EFE38BFD5
:103EF00043EA0E03BA40641C82E750EA410E14BF45
:103F000052EA430E6FF000014FF4001717EB430F16
:103F10008ABF194617EB410FB5E74CEA055100205F
:103F2000B0BDD4F10104B4F120070FDAC4F12007C9
:103F3000520828BF42F0010210FA07F501FA07F70C
:103F4000E1BF2A43E0403843E1400FE0352C98DCE4
:103F5000C7F1200452EA400220FA07F218BF42F0EB
:103F6000010231FA07F0A1400A43002172F1004238
:103F700050F1000051EB0C01B0BD0000F446400DC3
:103F800040EAC120490006D200F014F8004248BFC0
:103F90006FF00040604700F00DF84FF0004188429C
:103FA0008CBF084640426047400D40EAC1204900AE
:103FB00080F00D8040F00040490DA1F58061491C62
:103FC00005D4D1F11F0154BFC840C01770474FF04E
:103FD0000000704770B44FF0004591EA030F44BFF2
:103FE0006B40FEF795BF00BF841A71EB030604D245
:103FF0006E40001BB141121973414FF4001C1CEBC1
:10400000410F34BF7CEB430684E00C0DA4EB135648
:10401000362E7DDC012E43DC45EAC32343EA5253AE
:1040200012BFD20292025B08240545EAC12141EA8F
:104030005051D2EBC020994125D407D1B0FA80F677
:1040400010FA06F164D00020203608E0B1FA81F6BB
:10405000B140C6F1200220FA02F21143B0404FEA0B
:10406000F474B4EB465434F001064FEA74040AD8F1
:10407000D6F50016760D04F00044F04061FA06F221
:104080005040F1404840C00A40EA415021F0004110
:1040900028BF5FEA500550F1000044EBD12137E022
:1040A00045EAC323DB0A45EAC121C90AB6F1200566
:1040B0000EDD42EA0242120CC5F1200603FA06F6B2
:1040C000EB4042EA06056D42984161F100010DE0C6
:1040D00062FA06F5F240554063FA06FC82EA0C02E9
:1040E000F3405A406D42904161EB030111F4801F8F
:1040F00005D1641E620502D06D004041494121F4A2
:104100008011430875F1004350F1000041EB045168
:1041100070BC70471CEB410F15D223F0004352EAEC
:1041200043060BD04FEA4C0CBCEB410F04D80C0DEE
:10413000661E342EB7DDEBE7801A994150EA41063E
:1041400008BF0021E4E708BF1CEB430F28BF6FF056
:104150000001DDE710B5040064B2042C07DA012287
:1041600001210F4864B2205CFEF79AF90EE00420AA
:1041700004002000441E40B2002807D00122012183
:10418000074864B2205CFEF78BF9F2E710BD10B56A
:104190000400034864B2205CFEF702FA10BD000080
:1041A000EC0BFF1F0278C9B28A421AB11CBF10F88B
:1041B000012FF9E718BF00207047000000F101034C
:1041C000810704D010F8011B89B18107FAD1026878
:1041D000B2F10131914311F0803F04BF50F8042F38
:1041E000F6E710F8011B11B110F8011BFBE7C01A2C
:1041F00070470000C9B2830706D0521E22D310F8C0
:10420000013B9942F7D11FE0083A13D302F10402AF
:1042100041EA012141EA014150F8043B121F21BF4C
:104220004B40A3F1013C2CEA030C1CF0803FF3D07F
:10423000C9B2001F083210F8013B521E28BF91EA94
:10424000030FF8D818BF0120401E70471B4213D13E
:10425000094236D12AB18446B0FBF2F002FB10C20B
:10426000704700F041BAFCD30022002370470B00D6
:104270000200002100207047904271EB030CF6D33E
:1042800070B5B1FA81F4B3FA83F52C1BA340C4F1E5
:10429000200532FA05F63343A2405FF00046E640BF
:1042A00002E05B085FEA3202841A71EB030524BF67
:1042B000204629467641F4D302000B00300000214D
:1042C00070BD012ACFD970B5140C20D0B1FA81F499
:1042D000B2FA82F5C4F120046419B4F12006D6D3F1
:1042E000B2405FF00044F440002502E052085FEA6B
:1042F0003303C61A71EB020E24BF30467146644187
:104300006D41F3D302000B002000290070BD0C4664
:10431000B1FBF2F102FB11452D0445EA1045B5FB56
:10432000F2F402FB145580B240EA0545B5FBF2F009
:1043300002FB105240EA044070BD000062B38B07DC
:1043400008D0521E11F8013B00F8013B00F0248018
:104350008B07F6D1830740F0208000BF103A07D3C7
:1043600030B4B1E83810103AA0E83810F9D230BCB7
:10437000530724BFB1E80810A0E8081044BF51F863
:10438000043B40F8043BD20724BF31F8022B20F84D
:10439000022B44BF0B7803707047083A07D3B1E88B
:1043A0000810083A40F8043B40F804CBF7D2530712
:1043B000E4E730B4436803F0004201211B031B0B08
:1043C000436004BF0368002B08D10DE00368DD0FD4
:1043D00045EA440444605B000360491E4468E3020C
:1043E000F4D523031B0B436043681A43426008461D
:1043F00030BC70474FF4001C1CEB410F94BF1CEB0A
:10440000430F09E041EA030C50EA4C0C52EA0C0C51
:1044100003D2994208BF9042704714BF8B42824238
:1044200070470000F0B540F2FF7581EA030C0CF014
:10443000004C15EA11541DBF15EA1357AC42AF42A8
:10444000E5E0BC41C1F31301C3F31303801A9941A2
:1044500043F4801304D2641E40004941801859413E
:10446000C90241EA5051B1FBF3F603FB1611A2FB5E
:104470000675D7EBC020A94102D2761E801859419B
:10448000C90241EA5051B1FBF3FE03FB1E11A2FB2E
:104490000E75D7EBC020A94103D2AEF1010E8018F2
:1044A0005941890241EA9051760546EA8E2EB1FBC8
:1044B000F3F603FB1611A2FB0675D7EB8020A9418A
:1044C00002D2761E80185941C90241EA50514EEA83
:1044D000060EB1FBF3F603FB1611A2FB0675D7EB34
:1044E000C020A94102D2761E80185941C90241EA72
:1044F0005051B1FBF3F703FB1711A2FB0735D3EBC8
:10450000C020A94167F100070CBF004247F0010736
:1045100066F3D5274FEA1E31B80814F5806412DD22
:10452000BD0775F1004250EB0E5051EB045111F5EF
:10453000801F5CBF41EA0C01F0BD4CF07F6141F08F
:10454000E0410020F0BDBD076D0840EA0E5041F487
:104550008011D4F10104B4F120060ADAC4F1200676
:104560000200E04001FA06F3E1401843B24015436F
:104570000EE0342C13DCC6F1200445EA40056D083A
:1045800020FA06F2154321FA06F0A1400D4300215E
:1045900075F1004250F1000051EB0C01F0BD00201C
:1045A0005FEA0C01F0BDCFB992185B41B3FA83F713
:1045B00004BFB2FA82F6BF190B3FB7F120062FBF36
:1045C00002FA06F3BB40C7F1200622FA06F638BF0E
:1045D0003343BA401CB1E419641E33E77F4231F023
:1045E0000041B1FA81F404BFB0FA80F6A4190B3C83
:1045F000B4F120062FBF00FA06F1A140C4F1200655
:1046000020FA06F638BF3143A0403C1B1AE7AC4203
:104610001ABF05EA1357AF4212E050EA41061CBF29
:1046200052EA4306BFE750EA4107304661461CBFE5
:1046300041EA0551F0BD52EA430C08BFC143F0BD49
:1046400000204FF4001616EB410F98BF16EB430FF6
:1046500008BF16EB410F24BFC14305E016EB430F23
:104660000CBF61464CEA0551F0BD000080B513480F
:1046700000F03BF80FF24801016041608160C160C9
:104680000161416181610FF23C0242628162C1625B
:10469000016341630FF2300282630FF23402C2639E
:1046A0000164416401BD10B5044800F01EF80446E1
:1046B000206808B9FFF7DAFF204610BD940EFF1FEF
:1046C000000000002E00000066616C7365000000B1
:1046D000747275650000000091FBF2F303FB121188
:1046E000C0E900317047000070477047072F0A008B
:1046F00002000000050000000A0000001400000095
:1047000002000000E80300009A99193E713D8A3EBC
:10471000CDCC4C3FCDCCCC3D0000803F0000803F55
:1047200000009644000000000000000000000000AF
:104730000000000000000000000000000000000079
:1047400000004E6F6E4D61736B61626C650000001E
:1047500000486172644661756C74000000000000DE
:104760004D656D4D616E6167656D656E74000042EB
:1047700075734661756C740000000000000055738D
:104780006167654661756C74000000000000000000
:104790000000000000000000000000000000000019
:1047A0000000000000000000000000000000000009
:1047B00000000000000000000000000000000000F9
:1047C000000000000000000000535643616C6C00C4
:1047D000000000000000000044656275674D6F6EC8
:1047E00069746F720000000000000000000000000B
:1047F00000000000000050656E6453560000000089
:1048000000000000005379735469636B00000000DE
:1048100000000000444D4130000000000000000096
:10482000000000444D413100000000000000000085
:104830000000444D41320000000000000000000074
:1048400000444D4133000000000000000000000063
:10485000444D41340000000000000000000000440E
:104860004D41350000000000000000000000444DF4
:1048700041360000000000000000000000444D41EF
:10488000370000000000000000000000444D4138E7
:104890000000000000000000000000444D4139000D
:1048A00000000000000000000000444D41313000D5
:1048B000000000000000000000444D4131310000C4
:1048C0000000000000000000444D413132000000B3
:1048D00000000000000000444D41313300000000A2
:1048E000000000000000444D413134000000000091
:1048F0000000000000444D41313500000000000080
:1049000000000000444D415F4572726F720000006C
:104910000000004D434D00000000000000000000BA
:1049200000004654464C000000000000000000005B
:1049300000526561645F436F6C6C6973696F6E00F0
:104940004C56445F4C565700000000000000004CDD
:104950004C570000000000000000000000005761FC
:10496000746368646F6700000000000000524E47E7
:104970000000000000000000000000004932433049
:104980000000000000000000000000493243310038
:1049900000000000000000000000535049300000FB
:1049A00000000000000000000053504931000000EA
:1049B00000000000000000005350493200000000D9
:1049C0000000000000000043414E305F4F525F4D39
:1049D000425F6275660043414E305F4275735F4FC0
:1049E000666600000043414E305F4572726F720090
:1049F0000000000043414E305F54785F5761726E93
:104A0000696E6743414E305F52785F5761726E69DD
:104A10006E6743414E305F57616B655F55700000B4
:104A200000526573657276656435310000000000E0
:104A3000526573657276656435320000000000438C
:104A4000414E315F4F525F4D425F62756600434198
:104A50004E315F4275735F4F666600000043414E02
:104A6000315F4572726F72000000000043414E31A9
:104A70005F54785F5761726E696E6743414E315F74
:104A800052785F5761726E696E6743414E315F576E
:104A9000616B655F557000000052657365727665E5
:104AA00064353900000000005265736572766564F4
:104AB0003630000000000055415254305F52585FBC
:104AC00054580000000055415254305F4552520086
:104AD000000000000055415254315F52585F545855
:104AE0000000000055415254315F45525200000011
:104AF00000000055415254325F52585F5458000034
:104B0000000055415254325F4552520000000000EF
:104B10000055415254335F52585F54580000000012
:104B200055415254335F4552520000000000005579
:104B3000415254345F52585F5458000000005541B0
:104B40005254345F4552520000000000005541525B
:104B500054355F52585F545800000000554152547C
:104B6000355F4552520000000000004144433000D0
:104B7000000000000000000000004144433100003C
:104B8000000000000000000000434D503000000015
:104B90000000000000000000434D50310000000004
:104BA00000000000000000434D50320000000000F3
:104BB00000000000000046544D30000000000000DE
:104BC000000000000046544D3100000000000000CD
:104BD0000000000046544D320000000000000000BC
:104BE000000000434D5400000000000000000000E1
:104BF00000005254430000000000000000000000CC
:104C000000526573657276656438330000000000F9
:104C10005049543000000000000000000000005027
:104C2000495431000000000000000000000050491D
:104C30005432000000000000000000000050495401
:104C4000330000000000000000000000504442302B
:104C5000000000000000000000000055534230003A
:104C6000000000000000000000005553424443448F
:104C7000000000000000000000454E45545F313543
:104C800038385F54696D6572454E45545F547261A2
:104C90006E736D69740000454E45545F52656365DF
:104CA000697665000000454E45545F4572726F722B
:104CB00000000000004932533000000000000000F6
:104CC00000000000534448430000000000000000C2
:104CD00000000044414330000000000000000000DC
:104CE00000004441433100000000000000000000CB
:104CF0000054534930000000000000000000000094
:104D00004D43470000000000000000000000004C80
:104D10005054696D6572000000000000000052658B
:104D200073657276656431303200000000504F5276
:104D3000544100000000000000000000504F525499
:104D40004200000000000000000000504F52544399
:104D500000000000000000000000504F52544400CA
:104D6000000000000000000000504F5254450000B9
:104D700000000000000000005265736572766564F3
:104D80003130380000000052657365727665643119
:104D90003039000000005265736572766564313108
:104DA0003000000000526573657276656431313100
:104DB000000000005265736572766564313132001F
:104DC000000000526573657276656431313300000E
:104DD00000005265736572766564313134000000FD
:104DE00000526573657276656431313500000000EC
:104DF0005265736572766564313136000000005289
:104E00006573657276656431313700000000526564
:104E10007365727665643131380000000052657345
:104E2000657276656431313900000000008003400E
:104E30000090034000800B4000F00F4040F00F4016
:104E400080F00F40C0F00F4000F10F40F0000A1D4D
:104E50003000180032001801600018186400181A99
:104E60006E00181F780013187D00131A8200131C9F
:104E70008C000E1296000E15A0000E18AA000E1B34
:104E8000B4000E1EC8000C1CE1000B1EFA000A1F25
:104E9000000109080090044000A0044000B0044054
:104EA00000C0044000D0044000A0064000B006400E
:104EB00000C0064000D0064000A00E4000B00E40EA
:104EC0000100000030312A00343536370204010178
:104ED0003C0EFF1F8C0EFF1F3C0EFF1F3C0EFF1FE2
:104EE0003C0EFF1F2D0CFF1F140CFF1F00000000C5
:104EF00000000000000000000000000000000000B2
:104F000000000000000000000000000000000000A1
:104F10000000000000000000000000000000000091
:104F2000000000F800000000000000333000000026
:104F300000100C06100C060000000000000000002D
:104F400040C07840C0784000043F04043F0404009F
:104F5000007088FC08300000001820FF211E0000AF
:104F6000F008F000E018000000211C031E211E00C4
:104F700000F00888700000001E212324192721104A
:104F800010160E00000000000000000000000000ED
:104F9000000000E018040200000000071820400094
:104FA00000020418E0000000004020180700000084
:104FB000404080F0804040000202010F01020200E8
:104FC000000000F0000000000101011F01010100CC
:104FD000000000000000000080B070000000000031
:104FE00000000000000000000001010101010101BA
:104FF0000000000000000000003030000000000051
:105000000000000080601804006018060100000025
:1050100000E010080810E000000F102020100F0022
:10502000001010F8000000000020203F20200000A9
:105030000070080808887000003028242221300001
:1050400000300888884830000018202020110E0009
:105050000000C02010F8000000070424243F2400B2
:1050600000F80888880808000019212020110E0087
:1050700000E0108888180000000F112020110E0099
:1050800000380808C83808000000003F0000000091
:105090000070880808887000001C222121221C0052
:1050A00000E010080810E0000000312222110F007B
:1050B000000000C0C0000000000000303000000010
:1050C0000000008000000000000080600000000080
:1050D0000000804020100800000102040810200099
:1050E00040404040404040000404040404040400E4
:1050F0000008102040800000002010080402010079
:10510000007048080808F000000000303601000078
:10511000C030C828E810E0000718272423140B002B
:105120000000C038E0000000203C230202273820A5
:1051300008F8888888700000203F202020110E0089
:10514000C030080808083800071820202010080080
:1051500008F808080810E000203F202020100F0069
:1051600008F88888E8081000203F20202320180035
:1051700008F88888E8081000203F2000030000009D
:10518000C03008080838000007182020221E02003E
:1051900008F808000008F808203F210101213F20FD
:1051A000000808F8080800000020203F2020000028
:1051B00000000808F8080800C08080807F00000018
:1051C00008F888C028180800203F20012638200051
:1051D00008F8080000000000203F202020203000B8
:1051E00008F8F800F8F80800203F003F003F2000D2
:1051F00008F830C00008F808203F200007183F00DA
:10520000E01008080810E0000F10202020100F0008
:1052100008F808080808F000203F210101010000FB
:10522000E01008080810E0000F18242438504F0040
:1052300008F8888888887000203F2000030C302000
:1052400000708808080838000038202121221C003E
:10525000180808F8080818000000203F2000000087
:1052600008F808000008F808001F202020201F0070
:105270000878880000C83808000007380E010000D0
:10528000F80800F80008F800033C0700073C03009A
:10529000081868808068180820302C03032C302000
:1052A0000838C800C83808000000203F200000006F
:1052B00010080808C83808002038262120201800C7
:1052C000000000FE020202000000007F404040009B
:1052D000000C30C000000000000000010638C000D3
:1052E00000020202FE000000004040407F0000007B
:1052F00000000402020204000000000000000000A0
:10530000000000000000000080808080808080809D
:105310000002020400000000000000000000000085
:1053200000008080808000000019242222223F207B
:1053300008F8008080000000003F112020110E00BE
:105340000000008080800000000E1120202011004D
:10535000000000808088F800000E112020103F20FF
:105360000000808080800000001F22222222130083
:10537000008080F0888888180020203F20200000CE
:105380000000808080808000006B94949493600083
:1053900008F8008080800000203F210000203F208E
:1053A00000809898000000000020203F202000008E
:1053B000000000809898000000C08080807F00007E
:1053C00008F8000080808000203F24022D3020005B
:1053D000000808F8000000000020203F2020000006
:1053E0008080808080808000203F20003F20003F20
:1053F0008080008080800000203F210000203F202E
:105400000000808080800000001F202020201F00DE
:10541000808000808000000080FFA12020110E000D
:105420000000008080808000000E112020A0FF80FE
:10543000808080008080800020203F2120000100AB
:105440000000808080808000003324242424190000
:10545000008080E0808000000000001F202000000D
:105460008080000000808000001F202020103F204E
:10547000808080000080808000010E3008060100DE
:1054800080800080008080800F300C030C300F0083
:1054900000808000808080000020312E0E312000AE
:1054A000808080000080808080818E7018060100DE
:1054B00000808080808080000021302C22213000FC
:1054C00000000000807C020200000000003F40401D
:1054D00000000000FF00000000000000FF000000CE
:1054E0000002027C800000000040403F00000000FD
:1054F0000006010102020404000000000000000098
:10550000DFF800F0310CFF1FDFF8941340B231F8E0
:10551000201040B20128C0F2698140B2112880F207
:1055200065810022DFF87C331A7089B2312904DAF0
:105530000022DFF870335A7076E089B2612904DA0C
:105540000122DFF860335A706EE089B2912904DAE3
:105550000222DFF850335A7066E089B2C12904DABA
:105560000322DFF840335A705EE089B2F12904DA91
:105570000422DFF830335A7056E089B2B1F5907FDB
:1055800004DC0522DFF81C335A704DE089B2B1F516
:10559000A87F04DC0622DFF80C335A7044E089B29D
:1055A000B1F5C07F04DC0722DFF8F8325A703BE027
:1055B00089B2B1F5D87F04DC0822DFF8E8325A70EE
:1055C00032E089B2B1F5F07F03DC0922B54B5A70A5
:1055D0002AE089B2B1F5047F03DC0A22B14B5A708C
:1055E00022E089B2B1F5107F03DC0B22AD4B5A707B
:1055F0001AE089B2B1F51C7F03DC0C22A94B5A706A
:1056000012E089B2B1F5287F03DC0D22A54B5A7058
:105610000AE089B2B1F5347F03DC0E22A14B5A7047
:1056200002E00F229F4B5A7089B21A2903DA002236
:105630009C4B9A7069E089B2332903DA0122994BB5
:105640009A7062E089B24C2903DA0222954B9A7073
:105650005BE089B2652903DA0322924B9A7054E029
:1056600089B27E2903DA04228E4B9A704DE089B20A
:10567000972903DA05228B4B9A7046E089B2B0294C
:1056800003DA0622874B9A703FE089B2C92903DA10
:105690000722844B9A7038E089B2E22903DA0822A3
:1056A000804B9A7031E089B2FB2903DA09227D4BE5
:1056B0009A702AE089B2B1F58A7F03DA0A22794B1F
:1056C0009A7022E089B2B1F5967F03DC0B22754B0C
:1056D0009A701AE089B2B1F5A37F03DA0C22714BFC
:1056E0009A7012E089B2B1F5AF7F03DC0D226D4BE9
:1056F0009A700AE089B2B1F5BC7F03DA0E22694BD9
:105700009A7002E00F22674B9A7089B21A2903DA65
:105710000022644BDA7069E089B2332903DA01228E
:10572000604BDA7062E089B24C2903DA02225D4BE9
:10573000DA705BE089B2652903DA0322594BDA702B
:1057400054E089B27E2903DA0422564BDA704DE028
:1057500089B2972903DA0522524BDA7046E089B202
:10576000B02903DA06224F4BDA703FE089B2C9292B
:1057700003DA07224B4BDA7038E089B2E22903DA08
:105780000822484BDA7031E089B2FB2903DA09229A
:10579000444BDA702AE089B2B1F58A7F03DA0A2233
:1057A000404BDA7022E089B2B1F5967F03DC0B2220
:1057B0003C4BDA701AE089B2B1F5A37F03DA0C2210
:1057C000384BDA7012E089B2B1F5AF7F03DC0D22FD
:1057D000344BDA700AE089B2B1F5BC7F03DA0E22ED
:1057E000304BDA7002E00F222E4BDA70704710B5A2
:1057F0000400200040B2FFF787FE2B48007810F02D
:10580000FD00294908702848007850F0100026490A
:105810000870B8202549087025480078C006FBD4D8
:1058200023480078C0F38100C0B20228F8D11D4897
:10583000C3781C4882781B4841781A480078FFF7E3
:105840005FFE174864B210EB8400807810F01F00F0
:1058500018490870124864B210EB8400C07810F048
:105860001F0050F04000144908701148007880066D
:10587000FBD50F4800784006FBD50C48007810F0A7
:105880003F000A4908700A480078C0F38100C0B29E
:105890000328F8D1024864B230F82400C0B210BD29
:1058A000700BFF1FB40BFF1F014006400040064075
:1058B0000640064004400640054006400000000047
:1058C00000000000002F0000000007000700001487
:1058D0007F147F1400242A7F2A1200626408132395
:1058E00000364955225000000503000000001C222C
:1058F0004100000041221C000014083E081400086A
:10590000083E0808000000A0600000080808080819
:10591000000060600000002010080402003E5149B1
:10592000453E0000427F400000426151494600214F
:1059300041454B31001814127F1000274545453969
:10594000003C4A49493000017109050300364949C4
:10595000493600064949291E00003636000000007D
:1059600056360000000814224100001414141414C8
:105970000000412214080002015109060032495971
:10598000513E007C1211127C007F49494936003E8D
:1059900041414122007F4141221C007F4949494148
:1059A000007F09090901003E4149497A007F080842
:1059B000087F0000417F4100002040413F01007FFF
:1059C00008142241007F40404040007F020C027FCB
:1059D000007F0408107F003E4141413E007F0909DD
:1059E0000906003E4151215E007F09192946004603
:1059F000494949310001017F0101003F4040403FDA
:105A0000001F2040201F003F4038403F0063140823
:105A100014630007087008070061514945430000FE
:105A20007F41410000552A552A55000041417F0021
:105A30000004020102040040404040400000010216
:105A40000400002054545478007F484444380038FF
:105A50004444442000384444487F00385454541887
:105A600000087E0901020018A4A4A47C007F080499
:105A700004780000447D4000004080847D00007F69
:105A8000102844000000417F4000007C0418047886
:105A9000007C0804047800384444443800FC242482
:105AA00024180018242418FC007C0804040800486A
:105AB0005454542000043F444020003C4040207C8B
:105AC000001C2040201C003C4030403C004428107A
:105AD0002844001CA0A0A07C004464544C4414142E
:105AE0001414141480B500F08DF800F023F800F0C1
:105AF00003F8FAF725FFFEE780B50320FFF777FEEE
:105B000032490860314800684FF47A71484330499F
:105B100008602F4800682F490968C1F30361491CD8
:105B2000B0FBF1F02C4908605FF4E1310320FDF790
:105B30002DF801BD2DE9F8432848294988420DD0A8
:105B400000208046B8F5826F08D2254850F828001A
:105B5000224941F8280018F10108F3E71F48FBF734
:105B60005BFF204807002048060020480400A01BD7
:105B700080464046B0F10108002804D030783870E3
:105B8000761C7F1CF5E71A4881461A480500B5EBDC
:105B9000090080464046B0F10108002805D00020E9
:105BA00089F8000019F10109F4E713481349144A70
:105BB000531A98464346B3F10108002B04D00B78E2
:105BC0000370491C401CF5E7BDE8F183340EFF1F4C
:105BD000300EFF1F44800440380EFF1F0000FF1FDF
:105BE000000000001004FF1FEC460000104F0000F2
:105BF000800CFF1F910EFF1F300CFF1F3460000050
:105C00008460000080B500F008F80C4800884FF66A
:105C1000FE7108400949088001BDEFF3118072B69A
:105C20004CF22051064A11804DF62811044A118089
:105C3000C0B2002800D162B67047000000200540C5
:105C40000E200540433A5C55736572735CB9FAD314
:105C5000EE5C4465736B746F705CB8A1B5E3BFC64E
:105C6000BCBCB5E7B9ECD7E9BDF0CAF4B4ABB8D069
:105C7000C6F7C4A3BFE94B3630C7FDB6AFB4FAC20E
:105C8000EB5FD0C25CB8A1B5E3BFC6BCBCB5E7B999
:105C9000ECD7E9BDF0CAF4B4ABB8D0C6F7C4A3BF23
:105CA000E94B3630C7FDB6AFB4FAC2EB5CB8A1B56C
:105CB000E3BFC6BCBCB5E7B9ECD7E9BDF0CAF4B4E4
:105CC000ABB8D0C6F7C4A3BFE94B3630C7FDB6AFFB
:105CD000B4FAC2EB5C436869705C7372635C4D4BF1
:105CE00036305F5379735469636B2E630000000094
:105CF000433A5C55736572735CB9FAD3EE5C4465E4
:105D0000736B746F705CB8A1B5E3BFC6BCBCB5E77C
:105D1000B9ECD7E9BDF0CAF4B4ABB8D0C6F7C4A3A8
:105D2000BFE94B3630C7FDB6AFB4FAC2EB5FD0C2A5
:105D30005CB8A1B5E3BFC6BCBCB5E7B9ECD7E9BD5B
:105D4000F0CAF4B4ABB8D0C6F7C4A3BFE94B363041
:105D5000C7FDB6AFB4FAC2EB5CB8A1B5E3BFC6BC31
:105D6000BCB5E7B9ECD7E9BDF0CAF4B4ABB8D0C65E
:105D7000F7C4A3BFE94B3630C7FDB6AFB4FAC2EBE8
:105D80005C436869705C7372635C4D4B36305F6670
:105D9000746D2E6300000000433A5C5573657273A6
:105DA0005CB9FAD3EE5C4465736B746F705CB8A138
:105DB000B5E3BFC6BCBCB5E7B9ECD7E9BDF0CAF4E2
:105DC000B4ABB8D0C6F7C4A3BFE94B3630C7FDB6F5
:105DD000AFB4FAC2EB5FD0C25CB8A1B5E3BFC6BC3A
:105DE000BCB5E7B9ECD7E9BDF0CAF4B4ABB8D0C6DE
:105DF000F7C4A3BFE94B3630C7FDB6AFB4FAC2EB68
:105E00005CB8A1B5E3BFC6BCBCB5E7B9ECD7E9BD8A
:105E1000F0CAF4B4ABB8D0C6F7C4A3BFE94B363070
:105E2000C7FDB6AFB4FAC2EB5C436869705C7372CD
:105E3000635C4D4B36305F6770696F2E6300000006
:105E4000433A5C55736572735CB9FAD3EE5C446592
:105E5000736B746F705CB8A1B5E3BFC6BCBCB5E72B
:105E6000B9ECD7E9BDF0CAF4B4ABB8D0C6F7C4A357
:105E7000BFE94B3630C7FDB6AFB4FAC2EB5FD0C254
:105E80005CB8A1B5E3BFC6BCBCB5E7B9ECD7E9BD0A
