:10000000F8FF002011040000112F0000112F000044
:10001000112F0000112F0000112F0000112F0000E0
:10002000112F0000112F0000112F0000112F0000D0
:10003000112F0000112F0000112F0000112F0000C0
:10004000112F0000112F0000112F0000112F0000B0
:10040000FFFFFFFFFFFFFFFFFFFFFFFFFEFFFFFFFD
:1004100062B605F0A3FAFEE7012110F01F02914039
:10042000DFF8582740B2430942F8231070470121F2
:1004300010F01F029140DFF8482740B2430942F80C
:100440002310704710B5DFF83C070068DFF8381755
:10045000096800F027FFDFF834170860DFF830077D
:100460000068DFF82817096800F01CFFDFF8241780
:100470000860DFF818070068DFF81C170860DFF86D
:10048000100701685FF0804000F090FF0100DFF886
:10049000FC06006800F006FFDFF80017096800F0AE
:1004A000F1FFDFF8FC160860DFF8F8060168DFF8F6
:1004B000E406006800F07AFF0400DFF8EC0601684B
:1004C000DFF8D406006800F071FF0100200000F0A2
:1004D000E9FE0400DFF8D4060168DFF8C40600680E
:1004E00000F064FF210000F0CDFFDFF8441B096835
:1004F00000F0C8FFDFF8381B0860DFF8340B006835
:10050000DFF8AC1601F000F804D8DFF8A406DFF835
:10051000201B0860DFF878060068DFF880160860A6
:10052000DFF868060068DFF868160860DFF8000B7F
:10053000006800F0FBFF02000221002001F052F9E8
:1005400010BD80B500220221002001F04BF90022ED
:100550000121002001F046F901BD10B40300002480
:100560002100994207DA00242200082A01DA521CED
:10057000FBE7491CF5E710BC704780B5DFF834068F
:100580000168002001F06EFADFF8BC1A542001F077
:1005900018FB4420FFF74BFF01BDDFF81C2610605D
:1005A000DFF818261160704780B5DFF81406006880
:1005B000002101F01DFB0BD0DFF8900A0168DFF885
:1005C0000406006800F05EFFDFF8801A08600AE0A9
:1005D000DFF87C0A0168DFF8EC05006800F052FFE4
:1005E000DFF86C1A0860DFF8680A0068DFF85C1A48
:1005F000096800F057FEDFF8D0150860DFF8C40581
:100600008169DFF8C005006800F03CFFDFF8BC1529
:1006100000F038FFDFF8381A096801F0F7FA17D24E
:10062000DFF8A0058169DFF89C05006800F02AFF6B
:10063000DFF8981500F026FFDFF8101A096801F0BE
:10064000E5FA05D20021DFF88805FFF7A6FF13E0E1
:10065000DFF874050068002100F056FF06D2DFF8CD
:1006600074050068DFF87015086005E0DFF86C05B8
:100670000068DFF864150860DFF84C050068DFF8F3
:1006800060150860DFF830050168DFF85405006880
:1006900000F08CFEDFF84C150860DFF844050068B8
:1006A000DFF84415096800F0FDFDDFF81015096852
:1006B00000F07CFEDFF834150860DFF828050168DB
:1006C000DFF82805006800F0DDFEDFF8241508607B
:1006D000DFF81C050068DFF80015096801F0A8FACA
:1006E000DFF8E414086000F0B3F800F05AF8DFF81F
:1006F000D8040068DFF85C1900F006FF05D8DFF8C1
:100700005409DFF8C41408600CE0DFF8BC0400688A
:100710007FF0795101F07AFA04D2DFF83C09DFF872
:10072000A8140860DFF8A00401685FF07E5000F0B4
:10073000A9FE00F0AAF900F0F9FE02000021012054
:1007400001F050F8DFF880040068DFF81019086045
:10075000DFF8FC080068DFF808190860DFF8EC082B
:100760000068DFF86419086001BD80B5DFF85C0936
:100770000068012814D100F05DFCDFF8540900681E
:1007800001F0D4FADFF8FC130860DFF8F803006822
:1007900001F0E4FAFFF756FE0020DFF83019086098
:1007A00001BD80B5DFF81C040169DFF8200400F00A
:1007B00069FEDFF89C18096801F028FA47D2DFF8D3
:1007C0000404C168DFF88C0800F05CFE0100DFF86B
:1007D0007C08006801F01AFA39D2DFF8780800F0D6
:1007E00054F900F0A3FE02000021012000F0FAFFFE
:1007F00000F03EFCDFF8C8030068002101F0F8F9C2
:100800000BD0DFF848080068DFF8B813096800F07B
:1008100039FEDFF8381808600AE0DFF834080068AD
:10082000DFF8A013096800F02DFEDFF82418086037
:10083000FFF79BFFDFF88C03C068DFF8301800F08B
:1008400021FEDFF80818096801F0E0F9D0D201BDF7
:1008500080B5DFF870034168DFF8F80700F012FE9A
:100860000100DFF8EC07006801F0D0F946D2DFF8AC
:1008700054038168DFF8540300F004FEDFF8CC175E
:10088000096801F0C3F939D2DFF8CC0700F0FDF8B0
:1008900000F04CFE02000021012000F0A3FF00F058
:1008A000E7FBDFF81C030068002101F0A1F90BD081
:1008B000DFF898070068DFF80C13096800F0E2FD24
:1008C000DFF8881708600AE0DFF884070068DFF8BF
:1008D000F412096800F0D6FDDFF874170860FFF71E
:1008E00044FFDFF8E0024068DFF8801700F0CAFD3F
:1008F000DFF85C17096801F089F9D0D201BD10B5A5
:100900003224DFF8D0270621002001F02EFD200040
:10091000441E00284CD0002001F03EFE01F006FAF3
:10092000DFF8B41701F084F9DFF8B018086001208F
:1009300001F032FE01F0FAF9DFF89C1701F078F9C6
:10094000DFF898170860DFF89408006801F0CAFF24
:10095000020092B20621372001F09EFBDFF87C07EF
:10096000006801F0BFFF020092B206215A2001F098
:1009700093FBDFF8F0060068002101F039F90BD095
:10098000DFF858070168DFF8E006006800F07AFD3C
:10099000DFF848170860BAE7DFF840080168DFF8B9
:1009A000C806006800F06EFDDFF830180860AEE79A
:1009B000DFF828070068DFF8281700F063FDDFF88C
:1009C0001C170860DFF814080068DFF8141700F03F
:1009D00059FDDFF80818086010BD80B5012200211C
:1009E0004B2001F0A1FF012200214C2001F09CFFCF
:1009F000012200214D2001F097FF012200214F200C
:100A000001F092FF01220021622001F08DFF0122FE
:100A10000121612001F088FF01220121632001F002
:100A200083FF01220121642001F07EFF01220121C8
:100A3000452001F079FF00220021442001F074FFDD
:100A4000002000F022F800F071FD030032220021A6
:100A5000012000F009FE002342F210720121002063
:100A600000F002FE002342F210720221002000F08A
:100A7000FBFD022000F031FF01F0B2FAFFF77DFD2F
:100A80000121642001F0A7FF01BD10B50400DFF8CB
:100A90005007210000F0F6FCDFF8481700F086FC54
:100AA000DFF8441701F0C4F8DFF8401700F0EAFC63
:100AB000DFF83C1700F07AFCDFF8381701F0B8F8DF
:100AC00010BD80B5DFF89C050068002101F090F8AA
:100AD00016D0DFF824078168DFF81C07006800F0F3
:100AE000D1FCDFF814178860DFF80C07C168DFF865
:100AF0000807006800F0C6FCDFF8FC16C86015E0C7
:100B0000DFF8F4064168DFF8F006006800F0BAFC90
:100B1000DFF8E4164860DFF8E0060169DFF8D80680
:100B2000006800F0AFFCDFF8D016086101BD80B5A9
:100B30004F2001F095FF002803D0DFF8C0061249CE
:100B400008604D2001F08CFF002803D0DFF8B006CC
:100B50000D4908604C2001F083FF002803D0DFF826
:100B6000A406094908604B2001F07AFF002803D051
:100B7000DFF894060449086001BD000000E100E0D0
:100B800080E100E0E40DFF1F4004FF1FE80DFF1FA0
:100B9000EC0DFF1FF80DFF1FFC0DFF1FF00DFF1FD9
:100BA000000EFF1F3404FF1F3804FF1F3C04FF1F0B
:100BB000007C9247140EFF1F2C04FF1F3004FF1F00
:100BC000C40DFF1F9C0DFF1F840DFF1F000070C28E
:100BD0008FC2F53DD40DFF1FD80DFF1FD00DFF1F95
:100BE000880DFF1F8C0DFF1F940DFF1F900DFF1F21
:100BF000980DFF1F70B500250024FFF7EEFE44207E
:100C0000FFF715FC322001F068FF012001F0F6FB30
:100C1000322001F062FF002001F0F0FB4FF47A7007
:100C200001F05BFF5FF4E131032001F06DFF002074
:100C300002F08EF8012002F08BF8022002F088F812
:100C4000DFF8C8250221002001F08FFBDFF8C40582
:100C500002F0D2F840F2DC5001F03FFF32200500F4
:100C60002800451E002822D0012001F095FC01F04B
:100C70005DF8DFF8641400F0DBFFDFF8EC13886048
:100C8000DFF8E403806801F02DFE80B2020002214B
:100C9000372001F001FADFF8D003806801F05EF838
:100CA00002000B00DFF8700502F0A6F8D8E732204A
:100CB00005002800451E002822D0002001F06CFC11
:100CC00001F034F8DFF8101400F0B2FFDFF89813E9
:100CD0004860DFF89403406801F004FE80B202002F
:100CE00002215A2001F0D8F9DFF87C03406801F0B6
:100CF00035F802000B00DFF8200502F07DF8D8E798
:100D0000DFF86403406801F0EDFD80B202000221CB
:100D1000372001F0C1F9D448806801F0E3FD80B2CA
:100D2000020002215A2001F0B7F9DFF8E42404217F
:100D3000002001F01AFBDFF8E40402F05DF840F255
:100D4000DC5001F0CAFE322005002800451E0028B4
:100D50001FD0012001F020FC00F0E8FFDFF878133D
:100D600000F066FFC049C860BF48C06801F0BAFD26
:100D700080B202000421372001F08EF9BA48C06821
:100D800000F0ECFF02000B00DFF88C0402F034F8F6
:100D9000DBE7322005002800451E00281FD0002078
:100DA00001F0FAFB00F0C2FFDFF82C1300F040FF67
:100DB000AD490861AC48006901F094FD80B20200C1
:100DC00004215A2001F068F9A748006900F0C6FF25
:100DD00002000B00DFF8400402F00EF8DBE7A24847
:100DE000006901F07FFD80B202000421372001F08C
:100DF00053F99D48C06801F075FD80B202000421DE
:100E00005A2001F049F99848C0689749496800F0AC
:100E10007BFB04D8944840689349486103E09248BA
:100E2000C06891494861904880688F49096900F01D
:100E30006BFB04D88C4880688B49886103E08A4842
:100E4000006989498861884880688749C96800F0D5
:100E500029FADFF8CC1300F0EBFEDFF8C8130860C6
:100E6000814800698049496800F01CFADFF8B8132E
:100E700000F0DEFEDFF8B41308607B4880687A4932
:100E8000C96800F00FFA060077480069764949689A
:100E900000F008FA0100300000F0CAFEDFF89013FD
:100EA0000860DFF890230621002001F05EFA32206E
:100EB000050040F2DC5001F010FE2800451E00281D
:100EC0002AD0002001F068FB00F030FFDFF80812A4
:100ED00000F0AEFE6449C861012001F05DFB00F046
:100EE00025FFDFF8F41100F0A3FE5F4908625E48B9
:100EF000C06901F0F7FC80B202000621372001F042
:100F0000CBF85948006A01F0EDFC80B202000621DE
:100F10005A2001F0C1F8D0E75348C0695249096A24
:100F200000F0F2FA0CD85FF07E504E4908604E484F
:100F3000C0694D49096A00F0B5F94B4908600AE0FB
:100F40000020484908604848006A4749C96900F0DC
:100F5000A9F945490860002000F08AFFFFF7CFFC9F
:100F6000002000F085FFFFF7ACFD4420FFF754FAA6
:100F7000DFF8C4020068012807D1642001F054FDA5
:100F80000020DFF8B4120860641C022001F016FF94
:100F9000002805D1002000F06BFFFFF7D2FA4FE6E2
:100FA000DFF898020068012807D100F061F80020FE
:100FB000DFF888120860FFF7F7FA0B2C09DB4420F2
:100FC00001F04EFD002804D1FFF7BBFAFFF7ECFA61
:100FD000FAE73E480068012812D100F02BF83C489F
:100FE000006800F0A3FEDFF858120860DFF8500236
:100FF000006800F0B3FEFFF725FA002033490860CF
:10100000DFF840020068012803D10020DFF8341225
:101010000860DFF834020068012803D10020DFF8FF
:1010200028120860FFF783FD442001F019FD9FE7B7
:10103000F40DFF1F80B5022000F0D2FC24490860A7
:10104000022000F0E3FC01BDC9110000800DFF1F6C
:101050007C0DFF1F0000A0410000C0C1040EFF1F57
:10106000C80DFF1FC40DFF1F9C0DFF1F0000F041A6
:1010700080B5002001F090FA00F058FE164900F00B
:10108000D7FD72490860002001F027FD012001F022
:1010900083FA00F04BFE104900F0CAFD6C4908606D
:1010A0006A4800686A49096800F0FCF86949086004
:1010B00068480068684900F027FA03D86748006864
:1010C0006449086001BD0000CC0DFF1F500DFF1FDB
:1010D000780DFF1FF45F000000002041E00DFF1FAE
:1010E000000048425E48006801286BD15D480068F6
:1010F000401C5C4908605B4800685B49096888429D
:1011000005DB00205749086001205849086058480D
:101110000068401C564908605548006855490968F0
:1011200088420BDB002052490860012043490860D7
:10113000012051490860012050490860504800686A
:10114000401C4F4908604E4800684E490968884273
:1011500005DB00204A49086001204B4908604B48E4
:101160000068401C494908604848006848490968C7
:10117000884205DB002045490860012031490860AC
:1011800044480068401C434908604248006842499E
:101190000968884205DB00203E49086001202A4991
:1011A00008603E480068401C3C4908603B480068B5
:1011B0003B490968884205DB002038490860012066
:1011C0001D4908607047000080B5FFF78BFF244879
:1011D000006850F001002249086001BDDC0DFF1FCE
:1011E0000000B44200409C460000344300409C454F
:1011F0000050C347005043489C0DFF1F000016439A
:101200000000204300002A4300007A4300600000F1
:101210000C600000186000004860000024600000BE
:1012200000007042D00DFF1F00006C42D40DFF1F64
:10123000080EFF1F30600000680DFF1F480DFF1FE4
:10124000E40DFF1F580DFF1F600DFF1F7C0DFF1FDA
:10125000800DFF1F840DFF1F0100FA43040EFF1FC6
:101260000C710340440DFF1F1404FF1F400DFF1FAE
:101270004C0DFF1F1804FF1F740DFF1F700DFF1F83
:10128000540DFF1F1C04FF1F500DFF1F5C0DFF1F9F
:101290002004FF1F640DFF1F2404FF1F6C0DFF1FA0
:1012A0002804FF1F90EA010F44BF81F0004100F0C5
:1012B000F1B800BF431A4FF000423EBF5340C01A7E
:1012C000C91800BFD3095FEAD05C13EB400F34BFED
:1012D000B3EB410F40E07CEBD1530CD342EA012148
:1012E00022D8D1EB402009D3400A28BF5FEA500141
:1012F00040EBCC507047401A15D04002B0FA80F253
:10130000521C9040400A4FEA3C23B3EB026384BF77
:1013100000EB730007E040F400001A16DB07C2F18F
:101320000102D04018437047182BFCDC31FA03F25D
:1013300002FA03F3591A38BF42F00102D2EB4020FF
:101340003CBF4000ACF1010C5FEACC5CC20572F11D
:1013500000414CEB5020704713EB400F0FD24B0075
:1013600009D0ACEBD153022B03DB4902172BDDDD97
:1013700070479143401A4300D5D10020704713EBCA
:10138000410FD0D36FF00000704750F8041B61B1DB
:1013900050F8042BD30744BFA9F101039A18002386
:1013A00042F8043B091FFAD1EFE77047FF2212EA27
:1013B000D05C1DBF12EAD153944593422BE09C446C
:1013C000D30780EA01021A4043EA002043EA0121E0
:1013D000A1FB0030410038BF40007CF17F010BDBF6
:1013E000FE294ADA5B0842EAC15153EA006373F10D
:1013F000004C51EB10207047D1F1080CDCF12001BA
:101400002FDB5B0810FA01F10B4373F1004120FA66
:101410000CF05041704794451CBF02EAD1539342EF
:1014200080EA010202F000421DD0400019D04900BC
:1014300017D05BB9634514D00902B1FA81F3994022
:10144000BCEB030CC00140F00040C1E70002B0FA61
:1014500080FC10FA0CF0B3EB0C0CC90141F0004118
:10146000B6E71000704740000AD0490008D010F1DC
:10147000807F94BF11F1807F02E042F0FF4070470F
:10148000D043704790EA010F44BF81F00041FFF75D
:1014900011BF00BF421A3CBF801A89184FF0004CA0
:1014A000C0F3C752FF2A24D0C1F3C75313B3D21AD3
:1014B000D2F1190327DD4CEA01214CFA03F321EAAA
:1014C0000303D140C20D4CEA0020401834BF20EA8B
:1014D0000C004CEA5000D20553EA006373EB0C0C8D
:1014E00052EB1020420012F1807F38BF7047C00DD0
:1014F000C0057047490212BF9A4200EB5120F8E73D
:10150000D2F11703D9D570474FF0807C1CEB400F08
:1015100094BF1CEB410F05E040EA010C5FEA4C0C64
:1015200001D28142704718BF8842704740000DD2F7
:10153000010E7F390AD4D1F11F0104D4C00140F05B
:101540000040C84070477FF000007047002070479F
:1015500038B504000D0064B2002C03D0022C66D014
:1015600049D380E0DFF8CC04006850F08070DFF8E9
:10157000C41408606DB2002D0BD0022D15D00ED30F
:10158000042D1ED017D3062D27D020D3072D2AD007
:101590002FE04FF48061412001F040FC2AE04FF43D
:1015A0004071042001F03AFC24E04FF44071052022
:1015B00001F034FC1EE04FF48061442001F02EFC69
:1015C00018E04FF44071072001F028FC12E04FF4BE
:1015D0008061652001F022FC0CE04FF48061662000
:1015E00001F01CFC06E04FF48061672001F016FC5E
:1015F00000E038E037E0DFF83C04006850F00070AD
:10160000DFF8301408606DB2002D02D0012D06D035
:101610000BE04FF44071202001F000FC06E04FF495
:1016200040710D2001F0FAFB00E01CE01BE0DFF848
:101630000804006850F08070DFF8FC1308606DB299
:10164000002D02D0012D06D00BE04FF44071322066
:1016500001F0E4FB06E04FF44071332001F0DEFBC3
:1016600000E000E0FFE731BD2DE9F84F04000D0078
:1016700016001F0064B2002C0DD064B2012C02D001
:1016800064B2022C02D16DB2022D04DBFC21DFF822
:10169000AC0301F01BFC290049B2200040B2FFF767
:1016A00057FFDFF89C0300684FF47A714843804687
:1016B0005FEA1840B0FBF6F08146002082461FFA30
:1016C00089F959FA0AF0012802DB1AF1010AF6E752
:1016D0005FFA8AFABAF1080F05DB40F21711DFF85A
:1016E0005C0301F0F3FB38FA0AF0B0FBF6F0814638
:1016F00064B2002C03D0022C19D00CD323E01FFAC3
:1017000089F919F1010000FB07F0DFF83813B0FB8D
:10171000F1F0834617E01FFA89F919F1010000FB87
:1017200007F0DFF82013B0FBF1F083460BE01FFA5F
:1017300089F919F1010000FB07F0DFF80813B0FB8D
:10174000F1F08346FFE7DFF8000364B250F82400AD
:101750006DB210EBC500DFF8F01264B251F824103E
:101760006DB211EBC501C96831F00401C160DFF849
:10177000D80264B250F824006DB210EBC5002821E5
:10178000C1605FFA8AFA1AF0070050F00800DFF82B
:10179000B81264B251F8241008601FFA89F9DFF812
:1017A000A80264B250F82400C0F808900020DFF8C6
:1017B000981264B251F82410C864DFF88C0264B245
:1017C00050F824006DB210EBC5001FFA8BFBC0F877
:1017D00010B00020DFF8701264B251F82410486095
:1017E000BDE8F18F2DE9F04104000D0016005FF017
:1017F000000864B2002C0ED064B2012C02D064B296
:10180000022C02D16DB2022D05DB4FF4A971DFF875
:101810002C0201F05BFB64B2002C03D0022C17D029
:101820000BD320E0DFF82402864205D340F25711A3
:10183000DFF8080201F04AFB15E0DFF810028642EB
:1018400005D340F25B11DFF8F40101F03FFB0AE041
:10185000DFF8F801864205D340F25F11DFF8DC01C2
:1018600001F034FBFFE7DFF8E00164B250F8240038
:1018700080688046B8F1000FF5D064B2002C03D028
:10188000022C15D00AD31DE018F1010000FB06F070
:10189000DFF8B011B0FBF1F0070013E018F1010020
:1018A00000FB06F0DFF89C11B0FBF1F0070009E047
:1018B00018F1010000FB06F0DFF88811B0FBF1F031
:1018C0000700FFE7DFF8800164B250F824006DB232
:1018D00010EBC5000761BDE8F08110B5040064B2EB
:1018E000012C07D064B2022C04D04FF40771534886
:1018F00001F0ECFA64B22000012802D0022811D0D5
:1019000021E04C48006850F000704A4908604FF4EC
:10191000E0610C2001F082FA4FF4E0610D2001F04B
:101920007DFA15E04448006850F080704249086034
:101930004FF4C061322001F071FA4FF4C0613320DE
:1019400001F06CFA04E04FF419713C4801F0BEFA62
:101950003D4864B250F82400406D50F004003A490C
:1019600064B251F824104865374864B250F8240036
:10197000D0F8800050F00800334964B251F82410C8
:10198000C1F880000020304964B251F82410C864C6
:101990004FF6FF702C4964B251F8241088602A4831
:1019A00064B250F82400D0F8800050F001002649BD
:1019B00064B251F82410C1F88000234864B250F892
:1019C0002400406D50F001001F4964B251F824100A
:1019D000486500201C4964B251F82410486010BDCD
:1019E00038B5040064B2012C07D064B2022C04D0D4
:1019F00040F28121114801F069FA134864B250F8AD
:101A0000240040680500280000B232BD10B5040073
:101A100064B2012C07D064B2022C04D040F28F21B2
:101A2000064801F053FA0020074964B251F8241027
:101A3000486010BD3C80044030800440685B00007A
:101A4000140EFF1FA08601004C0BFF1FA186010092
:101A5000012110F01F0291404C4A40B2430942F864
:101A60002310704738B504000D00002D03D1242148
:101A7000474801F02BFA4748006850F400004549F8
:101A80000860002044490860681E444964B222018D
:101A90005050424864B210EB0410C06850F001008E
:101AA0003E4964B211EB0411C8603C4864B210EBCB
:101AB0000410806840084000384964B211EB0411FA
:101AC00088600320354964B211EB0411886014F179
:101AD000440040B2FFF7BCFF31BD38B504000D0033
:101AE000002D03D147212A4801F0F0F92948006868
:101AF00050F40000274908602748006880088000EB
:101B000025490860254864B210EB0410806840083D
:101B10004000224964B211EB04118860681E1F491D
:101B200064B2220150501D4864B210EB0410C0682A
:101B300050F00100194964B211EB0411C860174854
:101B400064B210EB0410806840084000134964B28E
:101B500011EB041188600120104964B211EB0411EB
:101B600088600E4864B210EB0410C068C007F8D556
:101B70000A4864B210EB0410C06850F00100074935
:101B800064B211EB0411C86031BD000000E100E057
:101B9000B85C00003C8004400070034000710340CA
:101BA00010B504004FF4007094FBF0F101FB1041FC
:101BB000002903D01E210B4801F088F90A4804606F
:101BC00010BD38B504000D00074800680749884279
:101BD00003D03021034801F079F9044864B240F899
:101BE000245031BD085E000008ED00E00000FF1F3A
:101BF00040EA010C5FEA4C0C07D0884205D14FEA5D
:101C0000400C1CF1807F98BF804270474FF0807C71
:101C10001CEB400F94BF1CEB410F05E040EA010CA8
:101C20005FEA4C0C01D28842704718BF814270476E
:101C300010B5FF2313EAD0541DBF13EAD1529C42C2
:101C40009A4239E0A41ADA0780EA0103134042EA13
:101C5000012142EA0020421A3CBF641E01EB42020D
:101C6000090AB2FBF1FE01FB1E221202B2FBF1F0E7
:101C700001FB10226EF30F201202B2FBF1FE4EEABE
:101C800000207F3406DDFE2C24DA53EA500050EBAE
:101C9000C45010BDD4F1020401FB1E2240F080713B
:101CA000192C1DDC21FA04F0C4F12004A1401143D9
:101CB00071F10042584110BD9C421ABF03EAD15253
:101CC0009A420FE080EA010E0EF00043400004D07B
:101CD000490016D143F0FF4010BD490008BFD3436F
:101CE000180010BD9C4205D1D21AF7D001F0004176
:101CF000484010BD4A0212BF0846484000F000406C
:101D000010BD4AB90902B1FA81F2914044B1A41858
:101D1000C00140F000409EE7C90141F0004152423D
:101D20000002B0FA80F4A040141B94E7002840F1B0
:101D30000780F446404200F003F850F0004060474E
:101D40000AD0B0FA80F18840D1F19D01C9050206A0
:101D500072F1004241EB1020704700005FF0FF0C71
:101D60001CEAD05114BF614506E0C110400721F0C4
:101D7000E04101F16051704779B900F00041000283
:101D80000AD0B0FA80FC00FA0CF001F16051A1EB2E
:101D90000C5101EBD0214005704741020CBF40F4CB
:101DA000E0016FF0000100207047000008210122CF
:101DB000DFF830361A600022DFF82C361A600A008D
:101DC000511ED2B2002A15D0020604D50122DFF836
:101DD0001C361A6003E00022DFF810361A60012278
:101DE000DFF804361A6000BF0022DFF8FC351A6005
:101DF0004000E4E77047000008210022DFF8E435E6
:101E00001A600022DFF8E0351A600A00511ED2B2D3
:101E1000002A15D0020604D50122DFF8D0351A6059
:101E200003E00022DFF8C4351A600122DFF8B8357C
:101E30001A6000BF0022DFF8B0351A604000E4E706
:101E4000704738B504000D00B5F15000C0B2FFF77F
:101E5000D3FFE4B2200950F01000C0B2FFF7CCFF6E
:101E600014F00F0050F00100C0B2FFF7C5FF31BD04
:101E700070B5040000200500EDB2082D17DAB5F1A9
:101E80005000C0B2FFF7B8FF0120FFF7B5FF1020E8
:101E9000FFF7B2FF00200600F6B2802E05DA200020
:101EA000C0B2FFF783FF761CF6E76D1CE4E770BD58
:101EB000002808D040F2375211000A00511E002AB3
:101EC000FBD1401EF4E7704710B504002020FFF757
:101ED00093FF2000C0B2FFF78FFF10BD10B50400C4
:101EE00054F04000C0B2FFF787FF10BD10B50400EA
:101EF0008120FFF781FF2000C0B2FFF77DFF10BDFA
:101F000010B504008D20FFF777FF54F01000C0B229
:101F1000FFF772FF10BD10B5040054F0A000C0B26E
:101F2000FFF76AFF10BD10B5040054F0A400C0B262
:101F3000FFF762FF10BD10B5040054F0A600C0B258
:101F4000FFF75AFF10BD10B50400A820FFF754FF9B
:101F50002000C0B2FFF750FF10BD10B5040054F0D0
:101F6000AE00C0B2FFF748FF10BD10B5040054F03A
:101F7000C000C0B2FFF740FF10BD10B50400D32071
:101F8000FFF73AFF2000C0B2FFF736FF10BD10B5D3
:101F90000400D520FFF730FF2000C0B2FFF72CFF70
:101FA00010BD10B50400D920FFF726FF2000C0B2F5
:101FB000FFF722FF10BD10B50400DA20FFF71CFF69
:101FC00054F00200C0B2FFF717FF10BD10B50400B7
:101FD000DB20FFF711FF2000C0B2FFF70DFF10BD9F
:101FE00080B5012201210D2000F09EFC012201217B
:101FF0000C2000F099FC01220121992000F094FCB2
:1020000001220121982000F08FFC0120DFF8D81375
:1020100008600020DFF8D81308603220FFF748FF7F
:102020000120DFF8CC1308600020FFF796FF802026
:10203000FFF7ADFF3F20FFF786FF0020FFF79DFF72
:102040000020FFF74BFF0420FFF75AFF0220FFF7A5
:102050003BFF0120FFF75FFF0820FFF786FF1020FE
:10206000FFF7A9FFCF20FFF741FFF120FFF799FF0E
:102070004020FFF7ABFF0020FFF755FF0020FFF7E0
:102080005AFF0120FFF769FF0020FFF7F1FE002152
:102090000020FFF7D6FE01BD2DE9F84F04000D002A
:1020A00093461FFA8BFB42F210709BFBF0F08DF809
:1020B00000001FFA8BFB4FF47A709BFBF0F00A21B3
:1020C00090FBF1F201FB120006001FFA8BFB64206B
:1020D0009BFBF0F00A2190FBF1F201FB12000700DC
:1020E0001FFA8BFB0A209BFBF0F00A2190FBF1F218
:1020F00001FB120080461FFA8BFB0A209BFBF0F1CC
:1021000000FB11B081462900C9B22000C0B2FFF720
:1021100098FE002082465FFA8AFABAF1280F05DAA3
:102120000020FFF743FE1AF1010AF4E7691CC9B267
:102130002000C0B2FFF785FE002082465FFA8AFACF
:10214000BAF1280F05DA0020FFF730FE1AF1010A74
:10215000F4E79DF8000000282CD09DF8002029000D
:10216000C9B22000C0B200F08BF83200D2B2290010
:10217000C9B214F10800C0B200F082F83A00D2B23D
:102180002900C9B214F11000C0B200F079F842463B
:10219000D2B22900C9B214F11800C0B200F070F830
:1021A0004A46D2B22900C9B214F12000C0B200F0F0
:1021B00067F863E0F6B2002E23D03200D2B22900D5
:1021C000C9B22000C0B200F05BF83A00D2B22900D8
:1021D000C9B214F10800C0B200F052F84246D2B2BF
:1021E0002900C9B214F11000C0B200F049F84A4603
:1021F000D2B22900C9B214F11800C0B200F040F800
:102200003CE0FFB2002F1AD03A00D2B22900C9B286
:102210002000C0B200F034F84246D2B22900C9B260
:1022200014F10800C0B200F02BF84A46D2B22900DF
:10223000C9B214F11000C0B200F022F81EE05FFA3B
:1022400088F8B8F1000F11D04246D2B22900C9B2C5
:102250002000C0B200F014F84A46D2B22900C9B238
:1022600014F10800C0B200F00BF807E04A46D2B201
:102270002900C9B22000C0B200F002F8BDE8F18F19
:10228000F8B504000D001600F6B23001FF3007006B
:102290002900C9B22000C0B2FFF7D3FDDFF8540116
:1022A000385CFFF783FD7F1CDFF84801385CFFF7DF
:1022B0007DFD7F1CDFF83C01385CFFF777FD7F1C5C
:1022C000DFF83001385CFFF771FD7F1CDFF8240177
:1022D000385CFFF76BFD7F1CDFF81801385CFFF7F7
:1022E00065FD7F1CDFF80C01385CFFF75FFD7F1C8C
:1022F000DFF80001385CFFF759FD7F1C691CC9B28B
:102300002000C0B2FFF79DFDDFF8E800385CFFF762
:102310004DFD7F1CDFF8DC00385CFFF747FD7F1CBC
:10232000DFF8D000385CFFF741FD7F1CDFF8C40008
:10233000385CFFF73BFD7F1CDFF8B800385CFFF727
:1023400035FD7F1CDFF8AC00385CFFF72FFD7F1CEC
:10235000DFF8A000385CFFF729FD7F1CDFF8940050
:10236000385CFFF723FD7F1CF1BD2DE9F843040025
:102370000D00160000275FF000085FF000095FFA0B
:1023800089F919F8060000282AD05FFA89F919F8A6
:10239000060020380700E4B27F2C02DB0020040096
:1023A0006D1C2900C9B22000C0B2FFF74AFD002011
:1023B00080465FFA88F8B8F1060F0DDA0E48FFB2D2
:1023C000062101FB07005FFA88F818F80000FFF704
:1023D000EDFC18F10108ECE7A41D19F10109CEE7A5
:1023E000BDE8F1833400FE436020FE436420FE43D9
:1023F0003000FE43884D00003457000038B504001B
:10240000200040B200F05BF95FF4E131032000F0FE
:102410007BFB220052B2DFF890040178012000F02B
:10242000D1F9220052B2DFF884040178022000F0D2
:10243000C9F9220052B2A921032000F0C3F92200F9
:1024400052B21721042000F0BDF9220052B200213F
:10245000052000F0B7F9220052B202210A2000F054
:10246000B1F9220052B201210B2000F0ABF9220099
:1024700052B25021062000F0A5F9220052B21421D8
:10248000072000F09FF9220052B2C021082000F07E
:1024900099F9220052B21221092000F093F9230089
:1024A0005BB20C22DFF80814002000F0CAF9002506
:1024B0000C2D07DADFF8F803295C36A000F09CFC4D
:1024C0006D1CF5E731BD38B504000025002005007E
:1024D000280040B2DFF8DC13097800B209B2884264
:1024E0003FDA23005BB20222DFF8CC13212000F098
:1024F000A8F9DFF8C40340780002DFF8BC130978BC
:102500004018DFF8B413897810EB0140DFF8AC1302
:102510000860DFF8AC030068DFF8A013096808184A
:10252000DFF89C130860DFF894030068DFF8941369
:102530000968884205D2DFF884030068DFF8841355
:102540000860DFF884030068DFF8701309688842C8
:1025500005D2DFF868030068DFF86C1308606D1CB3
:10256000B6E7DFF85C030068DFF848130978B0FBD2
:10257000F1F0DFF8581308600020DFF8441308601A
:10258000DFF848030068DFF848130860DFF83C0311
:10259000006832BD256300002DE9F84F81465FF0E9
:1025A000000A5FF0000B002007007FB2142F0ADA48
:1025B000484640B2FFF787FFDFF818137FB241F8B3
:1025C00027007F1CF1E70020040064B2142C16DA07
:1025D000DFF8000364B250F82400B0F5004F0CD2CD
:1025E000DFF8F00264B250F82400DFF8EC124FFA82
:1025F0008AFA41F82A001AF1010A641CE5E7002072
:10260000060076B24FFA8AFABAF10100864232DA4F
:10261000002005006DB24FFA8AFA76B2BAEB0600D6
:10262000854226DADFF8B0026DB210EB8500406813
:10263000DFF8A4126DB251F82510884217D2DFF8E6
:1026400098026DB250F825008046DFF88C026DB21A
:1026500010EB85004068DFF880126DB241F825006C
:10266000DFF874026DB210EB8500C0F804806D1CB9
:10267000D0E7761CC5E7012007007FB24FFA8AFA3F
:10268000BAF10100874208DADFF84C027FB250F855
:10269000270010EB0B0B7F1CEFE74FFA8AFABAF119
:1026A00002009BFBF0F000F05BFCDFF83022DFF86B
:1026B000303200F06DFC00F03DFDBDE8F28F10B54A
:1026C000040064B2002C1FD101220021102000F070
:1026D0002BF901220121112000F026F9012201210C
:1026E000432000F021F9002201210F2000F01CF905
:1026F0000121432000F06FF900210F2000F06BF959
:102700000121112000F067F964B2012C1FD10122D0
:102710000021102000F008F901220121112000F011
:1027200003F901220121402000F0FEF800220121DE
:102730000F2000F0F9F80121402000F04CF90021B1
:102740000F2000F048F90121112000F044F910BDDC
:1027500070B504000025002600200500EDB2082D0C
:102760002DDA200608D50121112000F034F90121CD
:10277000112000F030F907E00021112000F02BF9C2
:102780000021112000F027F96400760000210F20BD
:1027900000F021F900210F2000F01DF9102000F0B9
:1027A0005FF9002801D056F0010601210F2000F04A
:1027B00012F901210F2000F00EF96D1CCEE7300058
:1027C000C0B270BD70B504000D00160076B2002EC8
:1027D00004D10021432000F0FEF803E00021402056
:1027E00000F0F9F80220FDF7B8FE14F07F04200095
:1027F000C0B2FFF7ADFF00BF00BF00BF00BF00BF0A
:1028000000BF00BF00BF00BF00BF00BF00BF00BFD0
:1028100000BF00BF00BF00BF00BF00BF00BF00BFC0
:102820002800C0B2FFF794FF40F2A460FDF795FEC8
:102830000121432000F0CFF80121402000F0CBF827
:1028400070BD2DE9F04104000D0016001F007FB29D
:10285000002F04D10021432000F0BDF803E0002147
:10286000402000F0B8F854F080042000C0B2FFF718
:102870006FFF002080465FFA88F8F6B2B04509D2B3
:102880000020FFF765FF5FFA88F808F8050018F1E7
:102890000108F0E70121432000F09DF801214020CC
:1028A00000F099F8BDE8F0811004FF1F1104FF1F2C
:1028B000780CFF1F1204FF1F840CFF1F880CFF1FE2
:1028C000940CFF1F900CFF1F8C0CFF1F980CFF1F18
:1028D0009C0CFF1FA00CFF1FF00CFF1FCDCCCCCC1D
:1028E000CCCCEC3F4100090E7F3915D4D1F11F014A
:1028F00014D4400007D2C00140F00040C84048BF97
:102900006FF000407047C00140F00040C8404CBF2D
:102910004FF00040404270470020704700424FF0A7
:10292000004058BFC043704770B504000D0016004A
:102930004FF480712000C0B200F070FA6DB2002D2B
:1029400011D15648E4B2611150F821005349E4B264
:10295000621151F822104969012214F01F039A40B4
:102960009143416136E04D48E4B2611150F82100D5
:102970004A49E4B2621151F822104969012214F067
:102980001F039A4011434161F6B2002E11D1434812
:10299000E4B2611150F821000068012114F01F0217
:1029A000914088433D49E4B2621151F82210086019
:1029B00010E03A48E4B2611150F8210000680121AA
:1029C00014F01F02914008433449E4B2621151F8F7
:1029D0002210086070BD10B4C9B2002911D12F4A6D
:1029E000C0B2431152F823201268012310F01F04D3
:1029F000A3409A43294BC0B2441153F824301A60C3
:102A000010E0264AC0B2431152F823201268012375
:102A100010F01F04A3401A43204BC0B2441153F8D6
:102A200024301A6010BC704710B504001B48E4B293
:102A3000611150F82100406914F01F01C840C0071F
:102A400003D47B21164800F041FA1448E4B2611126
:102A500050F82100012114F01F029140C16010BD07
:102A600010B504000D48E4B2611150F8210040692E
:102A700014F01F01C840C00703D58C21084800F09E
:102A800025FA0648E4B2611150F82100006914F0FB
:102A90001F01C84010F0010010BD0000580BFF1FBF
:102AA000105C000010B50400002C15D0B4F1807F3C
:102AB00003D329210F4800F009FA00200E490860CD
:102AC0000E48046000200E49086005200A4908608D
:102AD00009480068C003FBD510BD10B504002000F4
:102AE000441E002804D007480068FFF7DBFFF6E724
:102AF00010BD0000BC5A000010E000E014E000E04F
:102B000018E000E00C0EFF1F2DE9F84304000D0053
:102B100064B2002C08D0022C2CD018D3042C4FD037
:102B20003BD3052C5FD071E0DFF80C02006850F455
:102B30008060DFF8041208604FF44071662000F0F6
:102B40006DF94FF44071672000F068F95EE0DFF83E
:102B5000E801006850F40060DFF8DC1108604FF411
:102B60004071432000F05AF94FF44071442000F0C6
:102B700055F94BE0DFF8C001006850F48050DFF8F1
:102B8000B81108604FF44071632000F047F94FF42A
:102B90004071622000F042F938E0DFF89C010068E3
:102BA00050F40050DFF8901108604FF44071852018
:102BB00000F034F94FF440712B2000F02FF925E09C
:102BC000DFF87801006850F48060DFF87011086069
:102BD0004FF440714E2000F021F94FF440714F2026
:102BE00000F01CF912E0DFF85401006850F40060B6
:102BF000DFF8481108604FF44071892000F00EF9A9
:102C00004FF44071882000F009F9FFE7DFF8300148
:102C100064B250F82400C07810F0F300DFF82011FF
:102C200064B251F82410C870DFF8140164B250F88F
:102C300024008078424964B251F82410887064B24C
:102C4000002C02D064B2012C06D13E4800684FF43B
:102C50007A714843814605E03B4800684FF47A7139
:102C6000484381462801B9FBF0F00600B6B2B6F53C
:102C7000005F02DB41F6FF700600B9FBF5F0B6B26B
:102C8000B0EB06100700BFB2202F04DB40F20311A7
:102C90002E4800F01BF92A4864B250F8240000784E
:102CA00010F0E0008046B6B2300A10F01F0050EA83
:102CB0000800234964B251F824100870204864B217
:102CC00050F8240046701E4864B250F82400807A00
:102CD00010F0E000804617F01F0050EA0800184985
:102CE00064B251F824108872154864B250F8240078
:102CF000007C50F08800124964B251F82410087426
:102D00000F4864B250F82400C07850F00C000C4911
:102D100064B251F82410C870BDE8F183084A40B28B
:102D200052F8202012791206F8D5054A40B252F81E
:102D30002020D17170470000348004402880044076
:102D4000C80BFF1F0C0EFF1F140EFF1F605D00005D
:102D500010B5040064B2032C0DDA002200212448CF
:102D600064B2205CFFF7E0FD0321214864B2205CDF
:102D700000F076F814E0032004002000441E40B266
:102D800000280DD000220021194864B2205CFFF712
:102D9000CBFD0321164864B2205C00F061F8ECE73B
:102DA00010BD10B50400124864B2205CFFF758FE55
:102DB000002801D1002000E0012010BD10B5040062
:102DC000200040B2FFF7EDFF00280FD1094800684E
:102DD0000A2101FB00F10320FEF77FFE200040B234
:102DE000FFF7DFFF002801D1002000E0012010BD27
:102DF000E00BFF1F140EFF1F0EB400B582B003A935
:102E00000091024600AB0121034878440A3000F0EB
:102E1000BDF906BC5DF810FBB931000010B4294AB9
:102E200012684FF40073C0B24409A3401A43254B03
:102E30001A60254AC0B2431152F82320012310F032
:102E40001F04A340C2F8A0301F4AC0B2431152F879
:102E50002320C0B210F01F0342F8231010BC7047AB
:102E600010B4184A12684FF40073C0B24409A3406A
:102E70001A43144B1A60144AC0B2431152F823206B
:102E8000012310F01F04A340C2F8A03031F4E06128
:102E90000D4AC0B2431152F82320C0B210F01F03F4
:102EA00052F8232012F4E0621143074AC0B24311E2
:102EB00052F82320C0B210F01F0342F8231010BCB8
:102EC0007047000038800440B40BFF1F38B5040081
:102ED0000D00002000F052FF2A0021001B48FFF7E0
:102EE0008BFF002000F067FF194800684FF47A71EB
:102EF00001FB00F10320FEF7F0FDEDE738B504001B
:102F00000D00210049B20320FFF708FF200032BD69
:102F100010B510480468012000F030FF012000F0D7
:102F20004AFF0D48E4B20F2101FB0402E4B2210084
:102F30000A48FFF761FF064800684FF47A7101FB09
:102F400000F10320FEF7C9FDE8E70000605F000024
:102F5000140EFF1F04ED00E04404FF1FFC5E0000A0
:102F6000010040F10980F446404200F005F851F0BC
:102F700000416047010000BF09D0B0FA80F18840ED
:102F8000C91CC1F58461090501EBD02140057047DA
:102F9000B0B581EA030C0CF0004C40F2FF7515EA65
:102FA00011541DBF15EA1357AC42AF4239E0E41982
:102FB00023EA455343F48013C90241F0004141EA3A
:102FC000505EC7021100A7FB020200284FF000006C
:102FD000EEFB01204FF00001E3FB072118BF42F098
:102FE0000102401800214941E3FB0E01A4F5806471
:102FF0000F0302D252004041494154F101046CDDFB
:10300000470872F1004250F1000051EB0451A1F564
:1030100080115CBF41EA0C01B0BD4CEA05510020B3
:10302000B0BD05EA1357AC4214BFAF4241E050EACD
:10303000410E1CBF52EA430E02E061460020B0BDC3
:1030400024423C441BD15FEA070EF6D0090302BFBD
:1030500001460020AEF1140EB1FA81F7AEEB070481
:1030600001FA07FE0C37C7F1200100FA07F7C84044
:103070004EEA000E23EA455343F48013A2E733F0EF
:103080000043B3FA83F704BFB2FA82FE77440B3FE2
:10309000E41BB7F1200E2FBF02FA0EF3BB40C7F1BD
:1030A000200E22FA0EFE38BF43EA0E03BA40641C1B
:1030B00082E750EA410E14BF52EA430E6FF000015E
:1030C0004FF4001717EB430F8ABF194617EB410F58
:1030D000B5E74CEA05510020B0BDD4F10104B4F1CC
:1030E00020070FDAC4F12007520828BF42F001027E
:1030F00010FA07F501FA07F7E1BF2A43E040384329
:10310000E1400FE0352C98DCC7F1200452EA400280
:1031100020FA07F218BF42F0010231FA07F0A1408D
:103120000A43002172F1004250F1000051EB0C0102
:10313000B0BD0000F446400D40EAC120490006D26F
:1031400000F014F8004248BF6FF00040604700F004
:103150000DF84FF0004188428CBF0846404260475E
:10316000400D40EAC120490080F00D8040F0004051
:10317000490DA1F58061491C05D4D1F11F0154BF4F
:10318000C840C01770474FF0000070472DE9F04F5E
:10319000A1B08246002017461D4602910B900DF10A
:1031A000440B6FF000490AE017F8011B0298D04762
:1031B0000290002800F0A3820B98401C0B903878F6
:1031C00008B90B989DE22528EED1002005900690C5
:1031D0000790089009900A9001E040F0010017F86C
:1031E000011F2029F9D023290DD02B2904D02D2906
:1031F00006D030290AD00CE040F0020080B2EEE7A1
:1032000040F00400FAE740F00800F7E740F0100053
:10321000F4E72A290ED12968296051F8042B296086
:103220000D92002A04D5514240F004000D9180B265
:103230007F1C11E000210D9109E00D99494505D051
:1032400001EB810302EB430130390D917F1C3A7889
:10325000A2F130010A29F0D339782E2903D04FF09A
:10326000FF310C911DE017F8011F2A2907D12968A9
:1032700029607F1C51F8042B29600C9211E0002179
:103280000C9109E00C99494505D001EB810302EB53
:10329000430130390C917F1C3A78A2F130010A29A0
:1032A000F0D3ADF838000FF6B820397800F08EFD75
:1032B00008B117F8010B8DF83A009DF83A0068281C
:1032C00002BF39786829622005D06C2804BF38789D
:1032D0006C2803D171208DF83A007F1C11A804904E
:1032E00017F8014BB4F1250024D02038022840F211
:1032F000C680133800F0EC800B3800F05081401E7F
:1033000000F02581401E022840F2B980001F00F025
:103310001E81401F00F08480401E00F0D980401EB6
:1033200029D0C01E0CD0801E00F0D280C01E00F03C
:10333000CF803EE10120059025208DF8440044E136
:103340002868286050F8044B28600394DDF830802A
:10335000B8F1000F04D5204600F044FD804607E098
:1033600042460021204600F059FD08B1A0EB0408B8
:10337000CDF8188029E1296829604FF03C0851F800
:10338000040B29600021CDE9000111A80390DDE9BB
:103390000001049C11B908B90C9ACAB10206120FB7
:1033A000A0EB02123032A8F1010ED2B2F0463A2A56
:1033B000A8BF273200090EF8042040EA017009096D
:1033C00008BF002804D0039A08EB04039A42E5D30F
:1033D00008EB04000390C8F13C010C98069181426F
:1033E00009DA401A08904FF6EF71BDF8380008402E
:1033F000ADF83800E9E0002840F1E7809DF838009A
:1034000000F01400102840F0E0800D98059A801A12
:10341000089A801A401A0128C0F2D7800890D4E098
:103420009DF83A0062281AD0682806D06A280CD085
:103430006C281CD0712808D019E02868286050F842
:10344000041B28600B980880BFE02868286050F8AB
:10345000042B28600B98C117C2E90001B5E0286869
:10346000286050F8041B28600B980870ADE02868AD
:10347000286050F8041B28600B980860A5E02868B5
:10348000C01D20F007022A60D2E9000108322A603C
:10349000CDE90001002903D5012005902D200CE085
:1034A000BDF83800810703D5012005902B2004E0EA
:1034B000C00704D50120059020208DF8440005990F
:1034C00011A808180390214600A800F0D7F97CE065
:1034D0009DF83A206C2A0DD0712A18BF6A2A09D1AA
:1034E0002868C01D20F007032B60D3E900010833D2
:1034F0002B6005E02968296051F8040B2960002140
:10350000CDE90001682A08BF80B207D0622A08BF4F
:10351000C0B203D0742A18BF7A2A02D10021CDE9A3
:1035200000019DF83800000730D5DDE900010029D1
:1035300008BF00282AD044F02000782826D1302067
:103540008DF844008BF80140022005901EE02946CA
:103550009DF83A0000F0D8F8CDE90001002904DA1E
:103560000598411C05912D210EE0BDF8380081071A
:1035700004D50598411C05912B2105E0C00705D510
:103580000598411C0591202100F80B10059911A800
:1035900008180390214600A800F0EDF815E001207E
:1035A00005902868286050F8041B28608DF84410A6
:1035B0000BE00120059025208DF84400002C04D05C
:1035C0000598411C059100F80B400D980599401A8B
:1035D0000899401A0699401A0999401A0799401A01
:1035E0000A99A0EB01089DF8380040070FD420206D
:1035F0008DF84000002408E0012310AA00A95046DD
:1036000000F097FB00287AD1641C4445F4DB059C4C
:1036100011AE0AE016F8011B0298D047029000286C
:103620006DD00B98401C0B90641E002CF2D1302002
:103630008DF840000026089C08E0012310AA00A98C
:10364000504600F076FB002859D1761CA642F4DBE8
:10365000069C039E0AE016F8011B0298D0470290D0
:1036600000284CD00B98401C0B90641E002CF2D10B
:1036700030208DF840000026099C07E0012310AAA5
:1036800000A9504600F055FBC8BB761CA642F5DBEE
:1036900003980699079C0E1809E016F8011B02987A
:1036A000D047029058B30B98401C0B90641E002C1E
:1036B000F3D130208DF8400000260A9C07E001235A
:1036C00010AA00A9504600F034FBC0B9761CA642EF
:1036D000F5DB9DF8380040077FF571AD20208DF8AF
:1036E0004000002400E0641C4445BFF668AD01239F
:1036F00010AA00A9504600F01CFB0028F3D04FF0A0
:10370000FF3021B0BDE8F08F622826D068281DD098
:103710006A2808D06C2827D0712804D0742823D0B8
:103720007A280CD020E00868C01D20F0070008604F
:10373000D0E90023083008601946104670470A682F
:103740000A6052F8040B0A60002170470A680A6098
:1037500052F8040B0A6000B20BE00A680A6052F8E3
:10376000040B0A6040B204E00A680A6052F8040BD5
:103770000A60C11770472DE9FA4E05460A462F69BF
:103780006F2A08BF082405D041F02000782814BF14
:103790000A241024D5E900013C2681468A46642A81
:1037A00018BF692A05D1002903DAD9F100096AEBAB
:1037B0004A0ABAF1000F08BFB9F1000F0CD1286B0B
:1037C00050B9082C36D195F83800000732D5302092
:1037D0003B2687F83B002DE0E3174846514622463A
:1037E00000F048FBA4FB0023A9EB02023032A6F153
:1037F000010BD2B25E463A2A03DB9DF80030513B02
:103800009A180BF8072081465FEA010A08BFB9F150
:10381000000F03D0E868F1198842DDD3082C09D1E4
:1038200095F83800000705D5F05D302802D0761EE7
:103830003020F055C6F13C00A861F119E960296B10
:10384000884208DA081A28624FF6EF71288F08407C
:103850002887BDE8F38E00290ED595F8381001F0C1
:103860001401102908D1696B6A69891A2A6A891AB0
:10387000081A0128A8BF2862BDE8F38E2DE9F34F8E
:103880008BB0D0E90089006B01AF002848BF06204B
:1038900005D404BF41F02000672802D101200B9914
:1038A000086340F2FF720B984168C1F30A509042DE
:1038B00020D1080302BF0B98006800280AD10B9999
:1038C000032088619DF8300061381A2858D30FF220
:1038D000A44109E00B99032088619DF8300061380C
:1038E0001A284AD30FF284410B98C068032200F0D3
:1038F00039FB00E1012807DA0B9800F06EFB012884
:1039000002DB00230026EDE00B9A526840F2FE3104
:1039100061F31E520B994A6040F2FE31461A40464E
:1039200049460022002300F079FB38BF89F00049A6
:1039300036B247F2975070434949DFF828B190FBFF
:10394000F1F636B2C6F107079246012F1BDBF807E6
:1039500007D552465B4640464946FFF719FB80466D
:1039600089467F105046594652465B46FFF710FB8A
:1039700082468B46002FEAD126E00FF2EC31B3E706
:103980000FF2EC31B0E77F420024374D12E0F80728
:1039900007D552465B4620462946FFF7F9FA04460A
:1039A0000D467F105046594652465B46FFF7F0FAE7
:1039B00082468B46002FEAD14046494622462B4696
:1039C00000F044FB804689469DF8300040F0200519
:1039D000662D0CBF06F10A0006200B99096B4718EB
:1039E000142FA8BF132730208DF804000DF1050413
:1039F000DFF878B0012F3BDB40464946FFF7B0FBCC
:103A0000014604F1080204234FF00A0CB1FBFCFC50
:103A10000CEB8C04A1EB4401303102F8011D0A21AA
:103A2000BCFBF1FE0EEB8E04ACEB4404303471466B
:103A300002F8014D5B1EE7D1083F02F10804012F97
:103A4000D8DBFFF797FA02460B464046494600F09E
:103A500021FC00225B46FFF79BFA80468946CBE7B4
:103A6000A0860100000024400000F03F84D7974169
:103A70000DF10500201A0DF1050702E0401E761E2B
:103A80007F1C39783029F9D0662D02D136B2711CED
:103A900003E0652D0CBF012100210B9A126B8B18DE
:103AA0001BB29842B8BF03461BB219001AD4814218
:103AB00004DAC85D3528A8BF392000DA3020CA19D9
:103AC000521E00E05B1E12F80159491E8542F9D0D2
:103AD000392802D1C85D401CC855002902D57F1E77
:103AE0005B1C761C36B29DF830100B9800961BB20A
:103AF0003A4600F003F80DB0BDE8F08F2DE9F0472D
:103B000086B006468A4690461D4600F0A0FC406AF4
:103B1000376B90F80090012D02DA01250FF258283A
:103B20004AF02000BDF93840662808BF641C13D055
:103B3000672840F0888014F1040F73DBBC4271DA0F
:103B400096F83800641C000702D4BD42B8BF2F4667
:103B500024B23F1B48BF0027F068B16924B2012C92
:103B600021DA30234A1C0B54012F03DA96F838105F
:103B7000090702D502F80090521CB261E742B8BFB3
:103B80007C4224B26142E7197162AF42B8BF3D4640
:103B90002DB2F5612A46B3694146181800F0E2F9E2
:103BA000781BB062AEE00818A54216DA2A464146F4
:103BB00000F0D8F9B1696918B161601B7062012F1A
:103BC00003DA96F83800000705D5F06801F8009090
:103BD000F069401CF061B76294E02246414600F073
:103BE000C1F9B06920182D1B012F03DA96F838109F
:103BF000090703D5F16800F80190401C2DB2B061AF
:103C0000AF42B8BF3D46F068B3692DB22A4604EB17
:103C10000801181800F0A6F9B0692818B061781BDF
:103C200070626FE0BD4204DA96F83810090758BF99
:103C30002F467F1E48BF0027BAF1670F0CBF4FF019
:103C4000650A4FF0450AB169F06818F8013B0B545A
:103C50004A1C012F05DA96F83810090758BFB261DF
:103C600015D502F80090531CB361012F0FDB6D1EB8
:103C70002DB2AF42B8BF3D462DB22A464146181874
:103C800000F070F9B0692818B061781B7062F068B4
:103C9000B16901EB0008200008F801AB03D42B2028
:103CA00008F8010B03E02D2108F8011B64420025F0
:103CB00002AF08E00A2200A800F0E2FB019807F832
:103CC000010B6D1C009C21B20129F3DA022D06DAEA
:103CD0004AF02000652804BF302008F8010B4DB9D8
:103CE000302008F8010B07E06D1E02A8285C303078
:103CF00008F8010B012DF7DAF068B1690818A8EB94
:103D00000000F06196F8380000F0140010280DD182
:103D10007069B1690818716A0818F1690818B16A00
:103D20000818716B8842BCBF081A306206B0BDE843
:103D3000F087F8B504460D4616461F46002004E0FD
:103D4000E86A401CE8627F1E002047B116F8011B9C
:103D5000A868A047A8600028F2D14FF0FF30F2BD5C
:103D6000686A6C747A4C00006E616E004E414E00C1
:103D7000696E6600494E46003000000010B5040030
:103D800064B2042C07DA012201210F4864B2205CDE
:103D9000FEF7CAFD0EE0042004002000441E40B2DD
:103DA000002807D001220121074864B2205CFEF7F9
:103DB000BBFDF2E710BD10B50400034864B2205CFF
:103DC000FEF732FE10BD0000E40BFF1F0278C9B2FF
:103DD0008A421AB11CBF10F8012FF9E718BF002062
:103DE0007047000000F10103810704D010F8011BA7
:103DF00089B18107FAD10268B2F10131914311F022
:103E0000803F04BF50F8042FF6E710F8011B11B1F2
:103E100010F8011BFBE7C01A70470000C9B2830706
:103E200006D0521E22D310F8013B9942F7D11FE071
:103E3000083A13D302F1040241EA012141EA0141A7
:103E400050F8043B121F21BF4B40A3F1013C2CEA68
:103E5000030C1CF0803FF3D0C9B2001F083210F8E9
:103E6000013B521E28BF91EA030FF8D818BF01206A
:103E7000401E70471B4213D1094236D12AB18446F5
:103E8000B0FBF2F002FB10C2704700F001BBFCD3A4
:103E90000022002370470B00020000210020704721
:103EA000904271EB030CF6D370B5B1FA81F4B3FA1A
:103EB00083F52C1BA340C4F1200532FA05F63343E9
:103EC000A2405FF00046E64002E05B085FEA320293
:103ED000841A71EB030524BF204629467641F4D3AA
:103EE00002000B003000002170BD012ACFD970B54F
:103EF000140C20D0B1FA81F4B2FA82F5C4F1200496
:103F00006419B4F12006D6D3B2405FF00044F44007
:103F1000002502E052085FEA3303C61A71EB020E75
:103F200024BF3046714664416D41F3D302000B005B
:103F30002000290070BD0C46B1FBF2F102FB1145D7
:103F40002D0445EA1045B5FBF2F402FB145580B28E
:103F500040EA0545B5FBF2F002FB105240EA04408E
:103F600070BD000062B38B0708D0521E11F8013BF0
:103F700000F8013B00F024808B07F6D1830740F066
:103F8000208000BF103A07D330B4B1E83810103A9F
:103F9000A0E83810F9D230BC530724BFB1E80810AC
:103FA000A0E8081044BF51F8043B40F8043BD20796
:103FB00024BF31F8022B20F8022B44BF0B7803708A
:103FC0007047083A07D3B1E80810083A40F8043BB4
:103FD00040F804CBF7D25307E4E730B4436803F06A
:103FE000004201211B031B0B436004BF0368002B2D
:103FF00008D10DE00368DD0F45EA440444605B002E
:104000000360491E4468E302F4D523031B0B43609D
:1040100043681A434260084630BC70474FF4001CA6
:104020001CEB410F94BF1CEB430F09E041EA030C6A
:1040300050EA4C0C52EA0C0C03D2994208BF904251
:10404000704714BF8B42824270470000F0B540F2C7
:10405000FF7581EA030C0CF0004C15EA11541DBFEA
:1040600015EA1357AC42AF42E5E0BC41C1F313017E
:10407000C3F31303801A994143F4801304D2641EDE
:104080004000494180185941C90241EA5051B1FBF1
:10409000F3F603FB1611A2FB0675D7EBC020A9416E
:1040A00002D2761E80185941C90241EA5051B1FB33
:1040B000F3FE03FB1E11A2FB0E75D7EBC020A94136
:1040C00003D2AEF1010E80185941890241EA9051A4
:1040D000760546EA8E2EB1FBF3F603FB1611A2FB22
:1040E0000675D7EB8020A94102D2761E801859416F
:1040F000C90241EA50514EEA060EB1FBF3F603FB4A
:104100001611A2FB0675D7EBC020A94102D2761E7C
:1041100080185941C90241EA5051B1FBF3F703FB42
:104120001711A2FB0735D3EBC020A94167F10007A7
:104130000CBF004247F0010766F3D5274FEA1E3156
:10414000B80814F5806412DDBD0775F1004250EB2C
:104150000E5051EB045111F5801F5CBF41EA0C0178
:10416000F0BD4CF07F6141F0E0410020F0BDBD07A3
:104170006D0840EA0E5041F48011D4F10104B4F10D
:1041800020060ADAC4F120060200E04001FA06F334
:10419000E1401843B24015430EE0342C13DCC6F165
:1041A000200445EA40056D0820FA06F2154321FA7D
:1041B00006F0A1400D43002175F1004250F10000CE
:1041C00051EB0C01F0BD00205FEA0C01F0BDCFB94E
:1041D00092185B41B3FA83F704BFB2FA82F6BF19B3
:1041E0000B3FB7F120062FBF02FA06F3BB40C7F121
:1041F000200622FA06F638BF3343BA401CB1E41950
:10420000641E33E77F4231F00041B1FA81F404BF0C
:10421000B0FA80F6A4190B3CB4F120062FBF00FAC7
:1042200006F1A140C4F1200620FA06F638BF31435A
:10423000A0403C1B1AE7AC421ABF05EA1357AF4235
:1042400012E050EA41061CBF52EA4306BFE750EABB
:104250004107304661461CBF41EA0551F0BD52EAB4
:10426000430C08BFC143F0BD00204FF4001616EB0D
:10427000410F98BF16EB430F08BF16EB410F24BF49
:10428000C14305E016EB430F0CBF61464CEA0551F4
:10429000F0BD000070B44FF0004591EA030F44BF39
:1042A0006B4000F0F7B800BF841A71EB030604D22C
:1042B0006E40001BB141121973414FF4001C1CEBFE
:1042C000410F34BF7CEB430684E00C0DA4EB135686
:1042D000362E7DDC012E43DC45EAC32343EA5253EC
:1042E00012BFD20292025B08240545EAC12141EACD
:1042F0005051D2EBC020994125D407D1B0FA80F6B5
:1043000010FA06F164D00020203608E0B1FA81F6F8
:10431000B140C6F1200220FA02F21143B0404FEA48
:10432000F474B4EB465434F001064FEA74040AD82E
:10433000D6F50016760D04F00044F04061FA06F25E
:104340005040F1404840C00A40EA415021F000414D
:1043500028BF5FEA500550F1000044EBD12137E05F
:1043600045EAC323DB0A45EAC121C90AB6F12005A3
:104370000EDD42EA0242120CC5F1200603FA06F6EF
:10438000EB4042EA06056D42984161F100010DE003
:1043900062FA06F5F240554063FA06FC82EA0C0226
:1043A000F3405A406D42904161EB030111F4801FCC
:1043B00005D1641E620502D06D004041494121F4DF
:1043C0008011430875F1004350F1000041EB0451A6
:1043D00070BC70471CEB410F15D223F0004352EA2A
:1043E00043060BD04FEA4C0CBCEB410F04D80C0D2C
:1043F000661E342EB7DDEBE7801A994150EA41067C
:1044000008BF0021E4E708BF1CEB430F28BF6FF093
:104410000001DDE780B5134800F0A6F80FF248016F
:10442000016041608160C1600161416181610FF2A1
:104430003C0242628162C162016341630FF2300259
:1044400082630FF23402C2630164416401BD10B59E
:10445000044800F089F80446206808B9FFF7DAFF3D
:10446000204610BD680EFF1F000000002E00000057
:1044700066616C7365000000747275650000000071
:1044800091FBF2F303FB1211C0E900317047000009
:1044900070470000841A71EB030603D2001BB14180
:1044A000121973414FF4001C1CEB410F34BF7CEB1D
:1044B000430443E00C0DA4EB1356352E50DC45EAC3
:1044C000C323DB0A45EAC121C912B6F120050DDD7F
:1044D00063FA05F6EB4086EA0305124218BF45F081
:1044E0000105C01851F100010CD213E062FA06F583
:1044F000F2405540F3415A40B340F3405A408018CF
:10450000594107D349085FEA30005FEA350528BF03
:1045100045F0010501F58011420875F1004250F1A6
:10452000000041EB045170BC4FF4001C1CEB410F28
:1045300038BF70470020090D090570471CEB410F7B
:1045400010D252EA43060BD0BCEB410F05D80C0D3C
:10455000AB43661E342EB5DD02E0AB4380185941F3
:1045600070BC704770BC70477047000007300A008D
:1045700002000000050000000A0000001400000016
:1045800002000000E80300008FC2F53DF6971D3ED3
:1045900000008D42CDCC9C42000020420000E1434F
:1045A000000000000000000000000000000000000B
:1045B00000000000000000000000000000004E6F3E
:1045C0006E4D61736B61626C650000000048617242
:1045D000644661756C740000000000004D656D4D0F
:1045E000616E6167656D656E74000042757346614A
:1045F000756C74000000000000005573616765462B
:1046000061756C74000000000000000000000000F4
:10461000000000000000000000000000000000009A
:10462000000000000000000000000000000000008A
:10463000000000000000000000000000000000007A
:104640000000000000535643616C6C000000000045
:104650000000000044656275674D6F6E69746F728B
:10466000000000000000000000000000000000004A
:10467000000050656E64535600000000000000000A
:10468000005379735469636B000000000000000060
:10469000444D4130000000000000000000000044D4
:1046A0004D41310000000000000000000000444DBA
:1046B00041320000000000000000000000444D41B5
:1046C000330000000000000000000000444D4134B1
:1046D0000000000000000000000000444D413500D3
:1046E00000000000000000000000444D41360000C2
:1046F000000000000000000000444D4137000000B1
:104700000000000000000000444D4138000000009F
:1047100000000000000000444D413900000000008E
:10472000000000000000444D413130000000000056
:104730000000000000444D41313100000000000045
:1047400000000000444D4131320000000000000034
:10475000000000444D413133000000000000000023
:104760000000444D41313400000000000000000012
:1047700000444D4131350000000000000000000001
:10478000444D415F4572726F720000000000004DA1
:10479000434D0000000000000000000000004654EF
:1047A000464C00000000000000000000005265615F
:1047B000645F436F6C6C6973696F6E004C56445F45
:1047C0004C565700000000000000004C4C57000001
:1047D000000000000000000000005761746368647E
:1047E0006F6700000000000000524E47000000000C
:1047F00000000000000000004932433000000000CB
:1048000000000000000000493243310000000000B9
:10481000000000000000535049300000000000007C
:10482000000000000053504931000000000000006B
:10483000000000005350493200000000000000005A
:1048400000000043414E305F4F525F4D425F627542
:10485000660043414E305F4275735F4F66660000ED
:104860000043414E305F4572726F720000000000DD
:1048700043414E305F54785F5761726E696E674393
:10488000414E305F52785F5761726E696E67434187
:104890004E305F57616B655F557000000052657365
:1048A00065727665643531000000000052657365FD
:1048B000727665643532000000000043414E315F7E
:1048C0004F525F4D425F6275660043414E315F4219
:1048D00075735F4F666600000043414E315F45725D
:1048E000726F72000000000043414E315F54785FE8
:1048F0005761726E696E6743414E315F52785F5700
:1049000061726E696E6743414E315F57616B655FDF
:104910005570000000526573657276656435390024
:1049200000000000526573657276656436300000E1
:1049300000000055415254305F52585F54580000F7
:10494000000055415254305F4552520000000000B3
:104950000055415254315F52585F545800000000D6
:1049600055415254315F455252000000000000553D
:10497000415254325F52585F545800000000554174
:104980005254325F4552520000000000005541521F
:1049900054335F52585F5458000000005541525440
:1049A000335F45525200000000000055415254341C
:1049B0005F52585F54580000000055415254345F14
:1049C00045525200000000000055415254355F52DC
:1049D000585F54580000000055415254355F45520D
:1049E000520000000000004144433000000000007D
:1049F00000000000000041444331000000000000BE
:104A00000000000000434D50300000000000000096
:104A100000000000434D5031000000000000000085
:104A2000000000434D503200000000000000000074
:104A3000000046544D30000000000000000000005F
:104A40000046544D3100000000000000000000004E
:104A500046544D32000000000000000000000043FA
:104A60004D540000000000000000000000005254FF
:104A700043000000000000000000000000526573C9
:104A80006572766564383300000000005049543088
:104A900000000000000000000000005049543100F8
:104AA00000000000000000000000504954320000E7
:104AB00000000000000000000050495433000000D6
:104AC00000000000000000005044423000000000E0
:104AD00000000000000000555342300000000000BC
:104AE0000000000000005553424443440000000011
:104AF0000000000000454E45545F313538385F54A2
:104B0000696D6572454E45545F5472616E736D698F
:104B1000740000454E45545F5265636569766500D3
:104B20000000454E45545F4572726F7200000000F0
:104B30000049325330000000000000000000000077
:104B400053444843000000000000000000000044FF
:104B5000414330000000000000000000000044411C
:104B600043310000000000000000000000545349E1
:104B70003000000000000000000000004D4347002E
:104B800000000000000000000000004C5054696D5F
:104B900065720000000000000000526573657276C7
:104BA000656431303200000000504F525441000023
:104BB0000000000000000000504F5254420000006E
:104BC00000000000000000504F525443000000005D
:104BD000000000000000504F52544400000000004C
:104BE0000000000000504F5254450000000000003B
:104BF00000000000526573657276656431303800DC
:104C000000000052657365727665643130390000CA
:104C100000005265736572766564313130000000C2
:104C200000526573657276656431313100000000B1
:104C3000526573657276656431313200000000524E
:104C4000657365727665643131330000000052652A
:104C5000736572766564313134000000005265730B
:104C60006572766564313135000000005265736508
:104C700072766564313136000000005265736572EA
:104C800076656431313700000000526573657276D5
:104C900065643131380000000052657365727665D5
:104CA000643131390000000000800340009003406F
:104CB00000800B4000F00F4040F00F4080F00F40AC
:104CC000C0F00F4000F10F40F0000A1D3000180046
:104CD00032001801600018186400181A6E00181FBE
:104CE000780013187D00131A8200131C8C000E121A
:104CF00096000E15A0000E18AA000E1BB4000E1E82
:104D0000C8000C1CE1000B1EFA000A1F0001090874
:104D10000090044000A0044000B0044000C00440E3
:104D200000D0044000A0064000B0064000C006408D
:104D300000D0064000A00E4000B00E4030312A00E6
:104D40003435363702040101180EFF1F680EFF1FAD
:104D5000180EFF1F180EFF1F180EFF1F250CFF1F38
:104D60000C0CFF1F0000000000000000000000000D
:104D70000000000000000000000000000000000033
:104D80000000000000000000000000000000000023
:104D90000000000000000000000000F8000000001B
:104DA000000000333000000000100C06100C06005C
:104DB000000000000000000040C07840C0784000C3
:104DC000043F04043F040400007088FC0830000025
:104DD000001820FF211E0000F008F000E01800007D
:104DE00000211C031E211E0000F008887000000036
:104DF0001E2123241927211010160E000000000088
:104E00000000000000000000000000E018040200A4
:104E1000000000071820400000020418E000000015
:104E20000040201807000000404080F08040400013
:104E30000202010F01020200000000F00000000069
:104E40000101011F0101010000000000000000003D
:104E500080B07000000000000000000000000000B2
:104E6000000101010101010100000000000000003B
:104E700000303000000000000000000080601804D6
:104E8000006018060100000000E010080810E000B3
:104E9000000F102020100F00001010F8000000007C
:104EA0000020203F202000000070080808887000C3
:104EB0000030282422213000003008888848300043
:104EC0000018202020110E000000C02010F8000063
:104ED00000070424243F240000F8088888080800FC
:104EE0000019212020110E0000E010888818000011
:104EF000000F112020110E0000380808C8380800E3
:104F00000000003F00000000007088080888700062
:104F1000001C222121221C0000E010080810E000E3
:104F20000000312222110F00000000C0C00000006C
:104F30000000003030000000000000800000000091
:104F40000000806000000000000080402010080089
:104F50000001020408102000404040404040400052
:104F6000040404040404040000081020408000002D
:104F70000020100804020100007048080808F00032
:104F80000000003036010000C030C828E810E00002
:104F90000718272423140B000000C038E00000008D
:104FA000203C23020227382008F8888888700000F7
:104FB000203F202020110E00C030080808083800CB
:104FC000071820202010080008F808080810E00042
:104FD000203F202020100F0008F88888E8081000E3
:104FE000203F20202320180008F88888E8081000B7
:104FF000203F200003000000C030080808380000EF
:1050000007182020221E020008F808000008F808EF
:10501000203F210101213F20000808F80808000076
:105020000020203F2020000000000808F8080800A9
:10503000C08080807F00000008F888C02818080021
:10504000203F20012638200008F80800000000005A
:10505000203F20202020300008F8F800F8F8080051
:10506000203F003F003F200008F830C00008F8084B
:10507000203F200007183F00E01008080810E0005B
:105080000F10202020100F0008F808080808F00072
:10509000203F210101010000E01008080810E00095
:1050A0000F18242438504F0008F88888888870002A
:1050B000203F2000030C30200070880808083800CA
:1050C0000038202121221C00180808F808081800C0
:1050D0000000203F2000000008F808000008F80841
:1050E000001F202020201F000878880000C83808F2
:1050F000000007380E010000F80800F80008F8006A
:10510000033C0700073C0300081868808068180803
:1051100020302C03032C30200838C800C838080081
:105120000000203F2000000010080808C8380800D0
:105130002038262120201800000000FE0202020074
:105140000000007F40404000000C30C00000000024
:10515000000000010638C00000020202FE0000004C
:10516000004040407F0000000000040202020400F2
:10517000000000000000000000000000000000002F
:105180008080808080808080000202040000000017
:10519000000000000000000000008080808000000F
:1051A0000019242222223F2008F8008080000000FD
:1051B000003F112020110E000000008080800000C0
:1051C000000E112020201100000000808088F800CF
:1051D000000E112020103F20000080808080000001
:1051E000001F222222221300008080F08888881865
:1051F0000020203F20200000000080808080800070
:10520000006B94949493600008F800808080000004
:10521000203F210000203F200080989800000000DF
:105220000020203F2020000000000080989800000F
:1052300000C08080807F000008F80000808080002F
:10524000203F24022D302000000808F80000000054
:105250000020203F2020000080808080808080000F
:10526000203F20003F20003F8080008080800000A1
:10527000203F210000203F2000008080808000002F
:10528000001F202020201F00808000808000000060
:1052900080FFA12020110E0000000080808080008F
:1052A000000E112020A0FF80808080008080800080
:1052B00020203F21200001000000808080808000AD
:1052C0000033242424241900008080E08080000022
:1052D0000000001F2020000080800000008080006F
:1052E000001F202020103F208080800000808080D0
:1052F00000010E3008060100808000800080808060
:105300000F300C030C300F00008080008080800084
:105310000020312E0E3120008080800000808080AF
:1053200080818E701806010000808080808080005F
:105330000021302C2221300000000000807C02027D
:1053400000000000003F404000000000FF0000009F
:1053500000000000FF0000000002027C800000004E
:105360000040403F0000000000060101020204046A
:105370000000000000000000DFF800F0290CFF1F13
:10538000DFF8941340B231F8201040B20128C0F287
:10539000698140B2112880F265810022DFF87C33F8
:1053A0001A7089B2312904DA0022DFF870335A709A
:1053B00076E089B2612904DA0122DFF860335A709D
:1053C0006EE089B2912904DA0222DFF850335A7074
:1053D00066E089B2C12904DA0322DFF840335A704B
:1053E0005EE089B2F12904DA0422DFF830335A7022
:1053F00056E089B2B1F5907F04DC0522DFF81C335A
:105400005A704DE089B2B1F5A87F04DC0622DFF8BE
:105410000C335A7044E089B2B1F5C07F04DC072236
:10542000DFF8F8325A703BE089B2B1F5D87F04DC7E
:105430000822DFF8E8325A7032E089B2B1F5F07F25
:1054400003DC0922B54B5A702AE089B2B1F5047F1A
:1054500003DC0A22B14B5A7022E089B2B1F5107F09
:1054600003DC0B22AD4B5A701AE089B2B1F51C7FF8
:1054700003DC0C22A94B5A7012E089B2B1F5287FE7
:1054800003DC0D22A54B5A700AE089B2B1F5347FD6
:1054900003DC0E22A14B5A7002E00F229F4B5A7080
:1054A00089B21A2903DA00229C4B9A7069E089B20A
:1054B000332903DA0122994B9A7062E089B24C29B0
:1054C00003DA0222954B9A705BE089B2652903DA10
:1054D0000322924B9A7054E089B27E2903DA0422A7
:1054E0008E4B9A704DE089B2972903DA05228B4BD7
:1054F0009A7046E089B2B02903DA0622874B9A7087
:105500003FE089B2C92903DA0722844B9A7038E058
:1055100089B2E22903DA0822804B9A7031E089B21D
:10552000FB2903DA09227D4B9A702AE089B2B1F592
:105530008A7F03DA0A22794B9A7022E089B2B1F5A8
:10554000967F03DC0B22754B9A701AE089B2B1F595
:10555000A37F03DA0C22714B9A7012E089B2B1F585
:10556000AF7F03DC0D226D4B9A700AE089B2B1F572
:10557000BC7F03DA0E22694B9A7002E00F22674B60
:105580009A7089B21A2903DA0022644BDA7069E052
:1055900089B2332903DA0122604BDA7062E089B202
:1055A0004C2903DA02225D4BDA705BE089B265298F
:1055B00003DA0322594BDA7054E089B27E2903DA08
:1055C0000422564BDA704DE089B2972903DA05229E
:1055D000524BDA7046E089B2B02903DA06224F4B0B
:1055E000DA703FE089B2C92903DA07224B4BDA703F
:1055F00038E089B2E22903DA0822484BDA7031E058
:1056000089B2FB2903DA0922444BDA702AE089B215
:10561000B1F58A7F03DA0A22404BDA7022E089B2C0
:10562000B1F5967F03DC0B223C4BDA701AE089B2AD
:10563000B1F5A37F03DA0C22384BDA7012E089B29D
:10564000B1F5AF7F03DC0D22344BDA700AE089B28A
:10565000B1F5BC7F03DA0E22304BDA7002E00F2284
:105660002E4BDA70704710B50400200040B2FFF7EF
:1056700087FE2B48007810F0FD0029490870284863
:10568000007850F0100026490870B82025490870AD
:1056900025480078C006FBD423480078C0F3810079
:1056A000C0B20228F8D11D48C3781C4882781B4834
:1056B00041781A480078FFF75FFE174864B210EB94
:1056C0008400807810F01F0018490870124864B2F6
:1056D00010EB8400C07810F01F0050F04000144917
:1056E0000870114800788006FBD50F480078400606
:1056F000FBD50C48007810F03F000A4908700A48B2
:105700000078C0F38100C0B20328F8D1024864B227
:1057100030F82400C0B210BD6C0BFF1FB00BFF1F90
:105720000140064000400640064006400440064056
:10573000054006400000000000000000002F0000AF
:1057400000000700070000147F147F1400242A7F44
:105750002A120062640813230036495522500000C3
:105760000503000000001C224100000041221C0033
:105770000014083E08140008083E0808000000A0B5
:1057800060000008080808080000606000000020B1
:1057900010080402003E5149453E0000427F40008F
:1057A000004261514946002141454B310018141215
:1057B0007F10002745454539003C4A4949300001E2
:1057C0007109050300364949493600064949291E31
:1057D0000000363600000000563600000008142293
:1057E0004100001414141414000041221408000293
:1057F0000151090600324959513E007C1211127CB8
:10580000007F49494936003E41414122007F4141E4
:10581000221C007F49494941007F09090901003ED6
:105820004149497A007F0808087F0000417F410014
:10583000002040413F01007F08142241007F40408A
:105840004040007F020C027F007F0408107F003E72
:105850004141413E007F09090906003E4151215E58
:10586000007F091929460046494949310001017F55
:105870000101003F4040403F001F2040201F003FEB
:105880004038403F0063140814630007087008079D
:1058900000615149454300007F41410000552A55B0
:1058A0002A55000041417F0000040201020400402B
:1058B000404040400000010204000020545454784D
:1058C000007F48444438003844444420003844446D
:1058D000487F00385454541800087E09010200180B
:1058E000A4A4A47C007F080404780000447D400048
:1058F000004080847D00007F102844000000417F2C
:105900004000007C04180478007C08040478003807
:105910004444443800FC242424180018242418FC8F
:10592000007C0804040800485454542000043F44F8
:105930004020003C4040207C001C2040201C003CBB
:105940004030403C004428102844001CA0A0A07C0B
:10595000004464544C4414141414141480B500F01E
:105960008DF800F023F800F003F8FBF743F9FEE7A9
:1059700080B50320FFF777FE3249086031480068A0
:105980004FF47A714843304908602F4800682F4926
:105990000968C1F30361491CB0FBF1F02C490860B0
:1059A0005FF4E1310320FDF7AFF801BD2DE9F843C5
:1059B0002848294988420DD000208046B8F5826FDA
:1059C00008D2254850F82800224941F8280018F14B
:1059D0000108F3E71F48FCF7E3F8204807002048D8
:1059E000060020480400A01B80464046B0F1010894
:1059F000002804D030783870761C7F1CF5E71A48F0
:105A000081461A480500B5EB090080464046B0F1D2
:105A10000108002805D0002089F8000019F10109CB
:105A2000F4E713481349144A531A98464346B3F10E
:105A30000108002B04D00B780370491C401CF5E7CB
:105A4000BDE8F183100EFF1F0C0EFF1F44800440C1
:105A5000140EFF1F0000FF1F000000001004FF1FB6
:105A60006C450000884D0000780CFF1F680EFF1F7A
:105A7000280CFF1FAC5E0000FC5E000080B500F04B
:105A800008F80C4800884FF6FE7108400949088064
:105A900001BDEFF3118072B64CF22051064A11801D
:105AA0004DF62811044A1180C0B2002800D162B618
:105AB00070470000002005400E200540433A5C5529
:105AC000736572735CB9FAD3EE5C4465736B746F83
:105AD000705CB8A1B5E3BFC6BCBCB5E7B9ECD7E90B
:105AE000BDF0CAF4B4ABB8D0C6F7C4A3BFE94B3617
:105AF00030C7FDB6AFB4FAC2EB5FD0C25CB8A1B597
:105B0000E3BFC6BCBCB5E7B9ECD7E9BDF0CAF4B495
:105B1000ABB8D0C6F7C4A3BFE94B3630C7FDB6AFAC
:105B2000B4FAC2EB5CB8A1B5E3BFC6BCBCB5E7B97B
:105B3000ECD7E9BDF0CAF4B4ABB8D0C6F7C4A3BF84
:105B4000E94B3630C7FDB6AFB4FAC2EB5C436869C7
:105B5000705C7372635C4D4B36305F53797354697C
:105B6000636B2E6300000000433A5C5573657273EB
:105B70005CB9FAD3EE5C4465736B746F705CB8A16A
:105B8000B5E3BFC6BCBCB5E7B9ECD7E9BDF0CAF414
:105B9000B4ABB8D0C6F7C4A3BFE94B3630C7FDB627
:105BA000AFB4FAC2EB5FD0C25CB8A1B5E3BFC6BC6C
:105BB000BCB5E7B9ECD7E9BDF0CAF4B4ABB8D0C610
:105BC000F7C4A3BFE94B3630C7FDB6AFB4FAC2EB9A
:105BD0005CB8A1B5E3BFC6BCBCB5E7B9ECD7E9BDBD
:105BE000F0CAF4B4ABB8D0C6F7C4A3BFE94B3630A3
:105BF000C7FDB6AFB4FAC2EB5C436869705C737200
:105C0000635C4D4B36305F66746D2E6300000000A0
:105C1000433A5C55736572735CB9FAD3EE5C4465C4
:105C2000736B746F705CB8A1B5E3BFC6BCBCB5E75D
:105C3000B9ECD7E9BDF0CAF4B4ABB8D0C6F7C4A389
:105C4000BFE94B3630C7FDB6AFB4FAC2EB5FD0C286
:105C50005CB8A1B5E3BFC6BCBCB5E7B9ECD7E9BD3C
:105C6000F0CAF4B4ABB8D0C6F7C4A3BFE94B363022
:105C7000C7FDB6AFB4FAC2EB5CB8A1B5E3BFC6BC12
:105C8000BCB5E7B9ECD7E9BDF0CAF4B4ABB8D0C63F
:105C9000F7C4A3BFE94B3630C7FDB6AFB4FAC2EBC9
:105CA0005C436869705C7372635C4D4B36305F6750
:105CB00070696F2E63000000433A5C557365727320
:105CC0005CB9FAD3EE5C4465736B746F705CB8A119
:105CD000B5E3BFC6BCBCB5E7B9ECD7E9BDF0CAF4C3
:105CE000B4ABB8D0C6F7C4A3BFE94B3630C7FDB6D6
:105CF000AFB4FAC2EB5FD0C25CB8A1B5E3BFC6BC1B
:105D0000BCB5E7B9ECD7E9BDF0CAF4B4ABB8D0C6BE
:105D1000F7C4A3BFE94B3630C7FDB6AFB4FAC2EB48
:105D20005CB8A1B5E3BFC6BCBCB5E7B9ECD7E9BD6B
:105D3000F0CAF4B4ABB8D0C6F7C4A3BFE94B363051
:105D4000C7FDB6AFB4FAC2EB5C436869705C7372AE
:105D5000635C4D4B36305F5049542E6300000000A9
:105D6000433A5C55736572735CB9FAD3EE5C446573
:105D7000736B746F705CB8A1B5E3BFC6BCBCB5E70C
:105D8000B9ECD7E9BDF0CAF4B4ABB8D0C6F7C4A338
:105D9000BFE94B3630C7FDB6AFB4FAC2EB5FD0C235
:105DA0005CB8A1B5E3BFC6BCBCB5E7B9ECD7E9BDEB
:105DB000F0CAF4B4ABB8D0C6F7C4A3BFE94B3630D1
:105DC000C7FDB6AFB4FAC2EB5CB8A1B5E3BFC6BCC1
:105DD000BCB5E7B9ECD7E9BDF0CAF4B4ABB8D0C6EE
:105DE000F7C4A3BFE94B3630C7FDB6AFB4FAC2EB78
:105DF0005C436869705C7372635C4D4B36305F75F1
:105E00006172742E63000000433A5C5573657273CF
:105E10005CB9FAD3EE5C4465736B746F705CB8A1C7
:105E2000B5E3BFC6BCBCB5E7B9ECD7E9BDF0CAF471
:105E3000B4ABB8D0C6F7C4A3BFE94B3630C7FDB684
:105E4000AFB4FAC2EB5FD0C25CB8A1B5E3BFC6BCC9
:105E5000BCB5E7B9ECD7E9BDF0CAF4B4ABB8D0C66D
:105E6000F7C4A3BFE94B3630C7FDB6AFB4FAC2EBF7
:105E70005CB8A1B5E3BFC6BCBCB5E7B9ECD7E9BD1A
:105E8000F0CAF4B4ABB8D0C6F7C4A3BFE94B363000
